:08000000803102288731F12F45
:10000E0080302000D5065608C6005708C70058088D
:10001E00C8005308C9005408CA005508CB008D31DA
:10002E009F2520004608D3004708D4004808D50075
:10003E000800703086008701403FF600413FF70010
:10004E00423FF800433FF9000310780D790DFA0096
:10005E007A082000A500A508031D3E280030F300F5
:10006E000030F2000030F1000030F0000800733074
:10007E0086008701403FF600413FF700423FF800FF
:10008E00433FF9000310780D790DFA007A08A400A9
:10009E00A408031D5B280030F3000030F20000308E
:1000AE00F1000030F000080070308600870100304B
:1000BE00810441310030810441318030810441316D
:1000CE0000308104703086008701FF308105413198
:1000DE00FF3081054131FF3081054131003081050E
:1000EE007330860087010030810441310030810475
:1000FE0041318030810441310030810473308600FB
:10010E008701FF3081054131FF3081054131FF30DC
:10011E0081054131003081050030A3000030A2007E
:10012E000030A1000030A0007F30A502A0302407CF
:10013E00F6007608A5022030F6007608A4000130FD
:10014E00A035A10DA20DA30D890BA7287330860033
:10015E008701403FF600413FF700423FF800433F22
:10016E00F900703086008701403FFA00413FFB00E6
:10017E00423FFC00433FFD0079087D02031DD1285C
:10018E0078087C02031DD12877087B02031DD12835
:10019E0076087A02031CEE28733086008701403FF2
:1001AE00F600413FF700423FF800433FF900703040
:1001BE00860087017608810241317708813B413103
:1001CE007808813B41317908813B7D3120147030B4
:1001DE008600870181354131810D4131810D4131DB
:1001EE00810D7D310130A402031DA628A51F1B29F8
:1001FE002508803A9F3E03180D290030F300003089
:10020E00F2000030F1000030F00008000130A3369B
:10021E00A20CA10CA00C890B0E290130F600760859
:10022E00A507031934290D2920302502031C312975
:10023E000030F3000030F2000030F1000030F0002A
:10024E0008000130A035A10DA20DA30D890B29299F
:10025E000130A502A508031D28292308F300220852
:10026E00F2002108F1002008F00008002000C00074
:10027E00C01F682AC009C00A4008803A123E031CFB
:10028E00EA290A30F7000030F8004008F200F301C6
:10029E00F21BF3036430F0000030F1009731672752
:1002AE0081317108FA01FA077008F901F9078831EE
:1002BE00042081317708093E2000A4000030783DEB
:1002CE00A5000330A6000030A70096314B268131E1
:1002DE0020002508850024088400283084079030EB
:1002EE00853D003FA800013FA900023FAA006430EF
:1002FE00F7000030F8004008F900FA01F91BFA0384
:10030E008831042081317708123E2000A40000308D
:10031E00783DA5000330A6000030A70096314B268D
:10032E0081312000250885002408840028308407A8
:10033E009030853D003FAB00013FAC00023FAD0069
:10034E008C313524813120002808BD002908BE00DB
:10035E002A08BF004008F200F301F21BF3030A3033
:10036E00F0000030F10097316727813171082000CD
:10037E00A501A5077008A401A4070330A60000304C
:10038E00A70096314B2681312000250885002408D0
:10039E008400283084079030853D003FA800013F3F
:1003AE00A900023FAA003D08AB003E08AC003F0882
:1003BE00AD008C31352420002808B8002908B9007A
:1003CE002A08BA0008004008803A753E031C4B2AE2
:1003DE004008F200F301F21BF3030A30F000003084
:1003EE00F10097316727813171082000A501A5071B
:1003FE007008A401A4070330A6000030A7009631B0
:10040E004B268131200025088500240884002830E1
:10041E0084079030853D003FA800013FA900023FB0
:10042E00AA000A30F7000030F8004008F900FA017F
:10043E00F91BFA038831042081317708093E200028
:10044E00A4000030783DA5000330A6000030A700C0
:10045E0096314B2681312000250885002408840022
:10046E00283084079030853D003FAB00013FAC0043
:10047E00023FAD008C31352420002808B800290831
:10048E00B9002A08BA0008004008BB00BC013B08AE
:10049E00A4003C08A5000330A6000030A70096314A
:1004AE004B26200025088500240884002830840768
:1004BE009030853D003FB800013FB900023FBA00C1
:1004CE0008004008803A123E031C0F2B0A30F7003A
:1004DE000030F8004008F200F301F21BF303643021
:1004EE00F0000030F1009731672781317108FA0171
:1004FE00FA077008F901F90788310420813177086D
:10050E00093E2000A4000030783DA5000330A6006F
:10051E000030A70096314B2681312000250885003A
:10052E00240884004F3084079030853D003FA8009A
:10053E00013FA900023FAA006430F7000030F80026
:10054E004008F900FA01F91BFA03883104208131C1
:10055E007708123E2000A4000030783DA50003303D
:10056E00A6000030A70096314B26813120002508C9
:10057E008500240884004F3084079030853D003F6D
:10058E00AB00013FAC00023FAD008C313524813110
:10059E0020002808BD002908BE002A08BF00400818
:1005AE00F200F301F21BF3030A30F0000030F10009
:1005BE0097316727813171082000A501A5077008C2
:1005CE00A401A4070330A6000030A70096314B26E5
:1005DE008131200025088500240884004F308407CF
:1005EE009030853D003FA800013FA900023FAA00C0
:1005FE003D08AB003E08AC003F08AD008C31352401
:10060E0020002808B8002908B9002A08BA000800F6
:10061E004008803A753E031C702B4008F200F3012F
:10062E00F21BF3030A30F0000030F1009731672718
:10063E00813171082000A501A5077008A401A40747
:10064E000330A6000030A70096314B2681312000E2
:10065E0025088500240884004F3084079030853D9E
:10066E00003FA800013FA900023FAA000A30F70090
:10067E000030F8004008F900FA01F91BFA0388313E
:10068E00042081317708093E2000A4000030783D17
:10069E00A5000330A6000030A70096314B2681310D
:1006AE00200025088500240884004F3084079030F0
:1006BE00853D003FAB00013FAC00023FAD008C31E9
:1006CE00352420002808B8002908B9002A08BA00E5
:1006DE0008004008BB00BC013B08A4003C08A50074
:1006EE000330A6000030A70096314B2620002508C7
:1006FE008500240884004F3084079030853D003FEC
:10070E00B800013FB900023FBA0008002100BD0049
:10071E005B302000DE005E082100A70020005A0892
:10072E00DF005908DE00D90A0319DA0A5E088400D0
:10073E005F0885000008E00060082100C100C108C4
:10074E000319EC2F4108253A0319B02B410820005C
:10075E00DE2FB001B101B52B3115CB2B20005A087D
:10076E00DF005908DE00D90A0319DA0A5E08840090
:10077E005F08850000082100C100003A0319EC2F24
:10078E00663A0319B32B952B003030052000DE009E
:10079E000730210031052000DF005F085E040319D9
:1007AE00CF2F06302100B2000030B300270886009C
:1007BE008701403FBE00413FBF00423FC0000330B3
:1007CE002000DE005E082100A7073E08F0003F086B
:1007DE00F1004008F2000030F3000030F400003069
:1007EE00F5009631EA2683310318122C21003E08BB
:1007FE00F0003F08F1004008F200963130268331B8
:10080E0070082100BE007108BF007208C0000330DE
:10081E00B0040030B1042100BB01BC0140083F040C
:10082E003E040319DA2CBE3086008701403F2000BB
:10083E00DE00413FDF00423FE000433FE1000F306A
:10084E00E136E00CDF0CDE0C890B272CFF305E0549
:10085E00E20000305F05E3006208823E2100BB002B
:10086E00FF302000633D2100BC00FF30BB07FF308E
:10087E00BC3D03302000A4000030A50021003C0840
:10088E002000A701A70721003B082000A601A6070C
:10089E0096314B268331200025082100BC01BC0770
:1008AE00200024082100BB01BB070A30F7000030EE
:1008BE00F8003C08FA01FA073B08F901F9078831FC
:1008CE000420833178082100BC01BC077708BB01E6
:1008DE00BB07BC1F762CFF30BB07FF30BC3D3B0374
:1008EE00FF3A81313D218331200038082100B800C4
:1008FE00200039082100B90020003A082100BA0072
:10090E003E082000A80021003F082000A900210079
:10091E0040082000AA00210038082000AB0021006A
:10092E0039082000AC0021003A082000AD008C31BF
:10093E0035248331200028082100B8002000290822
:10094E002100B90020002A082100BA003808F00062
:10095E003908F1003A08F2000030F3008030F4005C
:10096E003F30F5009631EA2683310318C32CFF3051
:10097E002100BB07FF30D92C21003808F0003908C0
:10098E00F1003A08F2000030F3002030F40041305C
:10099E00F5009631EA268331031CDA2C0130210052
:1009AE00BB070030BC3D21003308803A2000DE003A
:1009BE0080305E02031DE62C0D302100320203183A
:1009CE000F2D210032088E319526833120003808F4
:1009DE00C6003908C7003A08C80021003E082000AA
:1009EE00C90021003F082000CA0021004008200055
:1009FE00CB008D319F258331200046082100BE009B
:100A0E00200047082100BF00200048082100C00038
:100A1E0021003C08803A2000DE0080305E02031D7B
:100A2E001B2D0A3021003B020318462D21004008E1
:100A3E003F043E040319962D3E082000C1002100FC
:100A4E003F082000C200210040082000C30088316A
:100A5E00B820833120004408430442044104031D9E
:100A6E00962D21003C08803A2000DE0080305E0288
:100A7E00031D442D023021003B02031C962D210044
:100A8E003808F0003908F1003A08F2007030F3002F
:100A9E008930F4004030F5009631EA268331031890
:100AAE005A2DF7305B2DF8302100BB07FF30BC3DCF
:100ABE003B0881313D218331200038082100B800E8
:100ACE00200039082100B90020003A082100BA00A0
:100ADE003E08F0003F08F1004008F2003808F3002D
:100AEE003908F4003A08F5008C31E9248331730893
:100AFE002100A6007208A5007108A4007008A300CA
:100B0E002608B7002508B6002408B5002308B4004F
:100B1E000030BE000030BF000030C000E42D2100C8
:100B2E003E082000C10021003F082000C200210025
:100B3E0040082000C3008831B820833120004408CB
:100B4E002100B700200043082100B6002000420813
:100B5E002100B500200041082100B4003708FB0039
:100B6E003608FA003508F9003408F80096318D265B
:100B7E00833178082000D3007908D4007A08D50094
:100B8E0021003E082000D60021003F082000D7009B
:100B9E00210040082000D80080310720833120003A
:100BAE0053082100BE00200054082100BF00200081
:100BBE0055082100C000BB01BC01C101C10A41089A
:100BCE000A3A0319212E41082000DE00DF01DE352E
:100BDE00DF0DDE35DF0D00305E07840090305F3DA7
:100BEE008500003FE000013FE100023FE200033FCD
:100BFE00E300630821003702031D152E2000620852
:100C0E0021003602031D152E200061082100350239
:100C1E00031D152E2000600821003402031C212E16
:100C2E0001302000DE005E082100C10741080A3AAB
:100C3E00031DEA2D033030052000DE0000302100B8
:100C4E0031052000DF005F085E0403193C2E2D30B5
:100C5E00DE0021003D088600870120005E0881002D
:100C6E000130DE005E082100BD07FF302000DE00EF
:100C7E005E082100C1074108FF3A0319A42E41085E
:100C8E002000DE00DF01DE35DF0DDE35DF0D00304A
:100C9E005E07840090305F3D8500003FF000013F0D
:100CAE00F100023FF200033FF30021003708F70086
:100CBE003608F6003508F5003408F4009731AE27F3
:100CCE00833173082100AB007208AA007108A900D5
:100CDE007008A8000030F3000030F2000030F10080
:100CEE000A30F0002B08F7002A08F6002908F50054
:100CFE002808F40097312527833173082100AB00B3
:100D0E007208AA007108A9007008A8002808303ED1
:100D1E0020002F2E30302000DE0021003D088600FE
:100D2E00870120005E0881000130DE005E08210090
:100D3E00BD07FF30BB07FF30BC3D3C08803A2000AA
:100D4E00DE0080305E02031DAF2E013021003B021B
:100D5E000318912E21003308803A2000DE008030E7
:100D6E005E02031DBD2E093021003202031CC12E6E
:100D7E000830C32E210032082000DE005E0821005C
:100D8E00C10041082000DE00DF01DE1BDF035E082C
:100D9E002100B20220005F082100B33B4108031975
:100DAE00E72E2E302000DE0021003D088600870150
:100DBE0020005E0881000130DE005E082100BD07C4
:100DCE00410881313D218331200038082100A000E7
:100DDE00200039082100A10020003A082100A200BD
:100DEE0020082000AB00210021082000AC002100CB
:100DFE0022082000AD0021003E082000A80021009E
:100E0E003F082000A900210040082000AA008C31D4
:100E1E003524833120002808C1002908C2002A0881
:100E2E00C3008831B8208331200044082100B70068
:100E3E00200043082100B600200042082100B50022
:100E4E00200041082100B400FF302000DE005E08C3
:100E5E002100C1074108FF3A0319CA2F410820009B
:100E6E00DE00DF01DE35DF0DDE35DF0D00305E0723
:100E7E00840090305F3D8500003FF000013FF1009F
:100E8E00023FF200033FF30021003708F700360857
:100E9E00F6003508F5003408F4009731AE2783319B
:100EAE0073082100AF007208AE007108AD00700823
:100EBE00AC000030F3000030F2000030F1000A30D8
:100ECE00F0002F08F7002E08F6002D08F5002C086C
:100EDE00F40097312527833173082100AF00720883
:100EEE00AE007108AD007008AC002C08303E20003A
:100EFE00DE0021003D088600870120005E0881008B
:100F0E000130DE005E082100BD0741082000DE0032
:100F1E00DF01DE35DF0DDE35DF0D00305E078400CC
:100F2E0090305F3D8500003FF000013FF100023F31
:100F3E00F200033FF30021003708F7003608F600F1
:100F4E003508F5003408F4009731252783317308EE
:100F5E002100B7007208B6007108B50070082A2F7C
:100F6E0030302000DE0021003D0886008701200081
:100F7E005E0881000130DE005E082100BD07FF30F3
:100F8E00B207FF30B33D330832040319952BB72F48
:100F9E000330210030052000DE0000302100310535
:100FAE002000DF005F085E040319952B2D30DE0054
:100FBE0021003D088600870120005E088100013077
:100FCE00DE005E082100BD07952B3D0886008701D7
:100FDE0081010800EA01EB01EC01ED01C230840051
:100FEE00003085002130963123267E102000963168
:020FFE00292E9A
:101008002000A101F81F0F28F709F809F70A0319AA
:10101800F80AA101A10AFA1F1A28F909FA09F90A16
:101028000319FA0A0130FB007B08A106A201A301FB
:101038007808770403194928A001A00AF81B2E286C
:101048000130F735F80D890B25280130FB007B08A6
:10105800A00722280130A235A30D890B2F28780874
:101068007A02031D392877087902031C402877087B
:10107800F9027808FA3B22140130F836F70C890B8C
:1010880041280130A002031D2E28210803195128E8
:10109800A209A309A20A0319A30A2308F801F80759
:1010A8002208F701F7070800730803196028720877
:1010B80071047004031D71280030F0000030F10045
:1010C8000030F20008000130F5007508F307013020
:1010D800F236F10CF00C890B6C28FE3072050319FE
:1010E8008A2867280130F5007508F3070130F007F2
:1010F800003003180130F107003003180130F207FF
:101108000130F236F10CF00C890B8528FF3072059E
:101118000319972876280130F3020130F035F10DD4
:10112800F20D890B9228F11F8F287318A128FF3020
:10113800F0057F30F105FF30F2050310F30C73085A
:10114800F500F601F7011030F535F60DF70D890BAE
:10115800A8287508F0047608F1047708F2047408E2
:1011680003190800F217080020004108C5004208CA
:10117800C6004308C7000310460D470DC8004808BD
:10118800CE00CE08031DD1280030C4000030C300B3
:101198000030C2000030C10008004108C500420804
:1011A800C6004308C7001730C736C60CC50C890BE4
:1011B800D8284508C8004808C900C217FF30C1052B
:1011C800FF30C2050030C3054108CA004208CB0001
:1011D8004308CC00CD018E30CE02CE1F0F294E0819
:1011E800803A8F3E031801290030C4000030C30044
:1011F8000030C2000030C10008000130CD36CC0CF0
:10120800CB0CCA0C890B02290130C5004508CE0752
:1012180003192829012918304E02031C25290030FA
:10122800C4000030C3000030C2000030C100080014
:101238000130CA35CB0DCC0DCD0D890B1D290130E0
:10124800CE02CE08031D1C29490803193629CA09EC
:10125800CB09CC09CD09CA0A0319CB0A0319CC0A50
:101268000319CD0A4D08C4004C08C3004B08C2003E
:101278004A08C1000800F20020000D118D10720804
:10128800F0000730F036890B462970080139F10063
:10129800F10CF10C0D0871067F3971068D0072088A
:1012A800F0000630F036890B562970080139F10034
:1012B800F10EF10DF10D0D087106BF3971068D00A3
:1012C8007208F0000530F036890B6729700801397B
:1012D800F100F10EF10D0D087106DF3971068D0070
:1012E8007208F0000430F036890B7729700801394C
:1012F800F100F10E0D087106EF3971068D0003300B
:10130800F000F00B852920000D15000020000D11BC
:101318007208F0000330F036890B8F297008013904
:10132800F100F10CF10C0D0871067F3971068D0082
:101338007208F0000230F036890B9F2970080139D5
:10134800F100F10EF10DF10D0D087106BF397106AE
:101358008D0072360139F000F00EF00D0D087006A0
:10136800DF3970068D0072080139F000F00E0D08A3
:101378007006EF3970068D000330F000F00BC229BB
:1013880020000D15000020000D11E530F00000329E
:101398000000F00BCB290800F20020000D118D147D
:1013A8007208F0000730F036890BD7297008013928
:1013B800F100F10CF10C0D0871067F3971068D00F2
:1013C8007208F0000630F036890BE72970080139F9
:1013D800F100F10EF10DF10D0D087106BF3971061E
:1013E8008D007208F0000530F036890BF829700876
:1013F8000139F100F10EF10D0D087106DF397106A2
:101408008D007208F0000430F036890B082A700845
:101418000139F100F10E0D087106EF3971068D00E2
:101428000330F000F00B162A20000D1500002000F4
:101438000D117208F0000330F036890B202A70086D
:101448000139F100F10CF10C0D0871067F397106B4
:101458008D007208F0000230F036890B302A7008CF
:101468000139F100F10EF10DF10D0D087106BF39CA
:1014780071068D0072360139F000F00EF00D0D087E
:101488007006DF3970068D0072080139F000F00E21
:101498000D087006EF3970068D000330F000F00B70
:1014A800532A20000D15000020000D110000E53022
:1014B800F00000320000F00B5D2A080021001D1426
:1014C8009D1404302000E5003D30E400E40B6A2A56
:1014D800E50B6A2A003221009D186F2A1D101C088E
:1014E8002000E400E5016408EA006508EB0021003B
:1014F8001B082000E400E5016A08E700E60164082B
:101508006604E80065086704E9006808EA006908F5
:10151800EB006D086B06031D932A6C086A06031915
:10152800622AC030B8007F30B9004430BA000030B9
:10153800A800A030A9004030AA006B08F901F907FB
:101548006A08F801F807963138268A3178082000A9
:10155800AB007908AC007A08AD008C3135248A31AB
:1015680020002808BB002908BC002A08BD008B31D0
:101578008C238A31200038082100C2002000390855
:101588002100C30020003A082100C4007630200062
:10159800D9009030DA00210042082000DB00210049
:1015A80043082000DC00210044082000DD00C5308D
:1015B80083318D238A31013089313F218A31F3010A
:1015C800F30AC5302000E4006408F40001309631C5
:1015D800B5268A3120006B08ED01ED076A08EC0199
:1015E800EC07622A23008D0121008D130D138D1243
:1015F8000D120D118D1020008D130D138D120D126B
:101608000D118D10E530F30000320000F30B082BAC
:10161800E530F30000320000F30B0E2BE530F30049
:1016280000320000F30B142BE530F3000032000009
:10163800F30B1A2BE530F30000320000F30B202BDC
:10164800E530F30000320000F30B262BF401F40A16
:10165800043074020318532B20008D130D138D16BC
:101668000D160D118D108D130D138D160D160D15EC
:101678008D10000020008D130D138D160D160D1101
:101688008D10E530F30000320000F30B472B0130DA
:10169800F3007308F40704307402031C302B200095
:1016A8008D130D138D160D120D118D108D130D1335
:1016B8008D160D120D158D10000020008D130D13C1
:1016C8008D160D120D118D10E530F300003200005B
:1016D800F30B6A2B2830F3007308F400740889317F
:1016E8003F218A311030F3007308F40074088931FF
:1016F8003F218A31F401F40A740889313F218A3183
:101708000F30F3007308F400740889313F21080092
:1017180020003B08BE003C08BF003D08C000031085
:101728003F0D400DC1004108C600C608031DA32B8C
:101738000030B8000030B9000030BA00080038089E
:10174800BE003908BF003A08C00003103F0D400D25
:10175800C1004108C700C708031DB92B0030B800F5
:101768000030B9000030BA0008000030C300003073
:10177800C4000030C50089304707BE003E08C602D5
:101788003B08BE003C08BF003D08C0001030C03612
:10179800BF0CBE0C890BCB2B3E08C1004108C7000B
:1017A8003808BE003908BF003A08C0001030C036FB
:1017B800BF0CBE0C890BDB2B3E08C1004108C706D5
:1017C8008030BE003E08C705BC17FF30BB05FF30A0
:1017D800BC050030BD05B917FF30B805FF30B905A5
:1017E8000030BA051830BE003E08C2000130C335CB
:1017F800C40DC50D890BFB2B3A083D02031D0A2CAD
:1018080039083C02031D0A2C38083B02031C132C20
:101818003808BB023908BC3B3A08BD3B43140130C9
:10182800BB35BC0DBD0D890B142C0130C202031D44
:10183800FA2B4308F0004408F1004508F200460876
:10184800BE003E08F3004708BF003F08F400883197
:10185800582070082000B8007108B9007208BA0052
:10186800080020002808AE002908AF002A08B000A8
:1018780003102F0D300DB1003108B200B208031D5E
:101888004C2C0030A8000030A9000030AA00080045
:101898002B08AE002C08AF002D08B00003102F0D48
:1018A800300DB1003108B700B708031D622C0030B5
:1018B800A8000030A9000030AA00080037087B3EC5
:1018C800AE002E08B2072808AE002908AF002A0883
:1018D800B0001030B036AF0CAE0C890B6E2C2E0851
:1018E800B1003108B7002B08AE002C08AF002D0856
:1018F800B0001030B036AF0CAE0C890B7E2C2E0821
:10190800B1003108B7068030AE002E08B705A91718
:10191800AC17FF30AB05FF30AC050030AD0500302B
:10192800B3000030B4000030B5000730AE002E0818
:10193800B600281CA52C2B08B3072C08B43D2D088D
:10194800B53D0130AA36A90CA80C890BA62C01308C
:10195800AB35AC0DAD0D890BAC2C0130B602031DB7
:101968009D2C0930AE002E08B600281CC12C2B086F
:10197800B3072C08B43D2D08B53D0130AA36A90C93
:10198800A80C890BC22C0130B536B40CB30C890BEA
:10199800C82C0130B602031DB92C3308F0003408F6
:1019A800F1003508F2003208AE002E08F3003708BF
:1019B800AF002F08F4008831582070082000A800D4
:1019C8007108A9007208AA0008007008F6007108DA
:1019D800F7007208F8000310770D780DF900790800
:1019E8002000A500A508031D022D0030F3000030DB
:1019F800F2000030F1000030F00008007308F60033
:101A08007408F7007508F8000310770D780DF900D1
:101A18007908A400A408031D1A2D0030F300003033
:101A2800F2000030F1000030F0000800F117FF303C
:101A3800F005FF30F1050030F205F417FF30F3052B
:101A4800FF30F4050030F5050030A3000030A20097
:101A58000030A1000030A0007F30A5029830240794
:101A6800F6007608A5021830F6007608A4000130C2
:101A7800A035A10DA20DA30D890B3C2D750872028E
:101A8800031D4C2D74087102031D4C2D7308700240
:101A9800031C552D7308F0027408F13B7508F23BDE
:101AA80020140130F035F10DF20D890B562D01305F
:101AB800A402031D3B2DA51F7D2D2508803A973EC6
:101AC80003186F2D0030F3000030F2000030F100F1
:101AD8000030F00008000130A336A20CA10CA00CC5
:101AE800890B702D0130F6007608A5070319962D8D
:101AF8006F2D18302502031C932D0030F3000030A1
:101B0800F2000030F1000030F00008000130A0358C
:101B1800A10DA20DA30D890B8B2D0130A502A508DF
:101B2800031D8A2D2308F3002208F2002108F10082
:101B38002008F000080020004608CC004708CD0027
:101B48004808CE0003104D0D4E0DCF004F08D200AF
:101B58004908CC004A08CD004B08CE0003104D0DB3
:101B68004E0DCF004F08D10052080319C72D510858
:101B780052020318CE2D5203FF3A5107CC001930F8
:101B88004C02031CCE2D4908C6004A08C7004B0862
:101B9800C800080051080319080052085102031828
:101BA800DD2D5103FF3A5207CC0019304C020318BF
:101BB80008000630CC004C08D000C81BD017CB1B3F
:101BC8005017C717FF30C605FF30C7050030C805D6
:101BD800CA17FF30C905FF30CA050030CB055108C8
:101BE80052020318192E0130C935CA0DCB0D890BC5
:101BF800F82D0130D102510852060319142E013074
:101C0800D002500807390319142EF72D0130C836B1
:101C1800C70CC60C890B0B2E0130CC004C08D20720
:101C28005208510603193E2E0A2E52085102031873
:101C38003E2E0130C635C70DC80D890B1E2E01304A
:101C4800D2025108520603193A2E0130D002500828
:101C5800073903193A2E1D2E0130CB36CA0CC90C90
:101C6800890B312E0130CC004C08D107520851069F
:101C7800031D302ED01F502EFF30C606FF30C7067A
:101C8800FF30C8060130C607003003180130C70707
:101C9800003003180130C807501F622EFF30C906F4
:101CA800FF30CA06FF30CB060130C90700300318E1
:101CB8000130CA07003003180130CB07D0014608AD
:101CC800C9074708CA3D4808CB3DCB1F7D2EFF30CA
:101CD800C906FF30CA06FF30CB060130C9070030FD
:101CE80003180130CA07003003180130CB07D001B0
:101CF800D00A4908F0004A08F1004B08F2005208DF
:101D0800CC004C08F3005008CD004D08F400883191
:101D1800582070082000C6007108C7007208C80063
:101D280008002000C5006E304502031C592F0A30F8
:101D3800F7000030F8004508BB00BC013B08F20082
:101D48003C08F3006430F0000030F1009731672759
:101D58008E317108FA01FA077008F901F90788311C
:101D680004208E317708093E2000A4000030783D19
:101D7800A5000330A6000030A70096314B268E310F
:101D88002000250885002408840028308407903026
:101D9800853D003FA800013FA900023FAA0064302A
:101DA800F7000030F8004508BD00BE013D08F90005
:101DB8003E08FA00883104208E317708123E200050
:101DC800A4000030783DA5000330A6000030A7002D
:101DD80096314B268E312000250885002408840082
:101DE800283084079030853D003FAB00013FAC00B0
:101DF800023FAD008C3135248E3120002808C20006
:101E08002908C3002A08C4004508BB00BC013B08D8
:101E1800F2003C08F3000A30F0000030F10097317E
:101E280067278E3171082000A501A5077008A40155
:101E3800A4070330A6000030A70096314B268E3148
:101E48002000250885002408840028308407903065
:101E5800853D003FA800013FA900023FAA004208B3
:101E6800AB004308AC004408AD008C3135248E31FA
:101E780020002808BF002908C0002A08C100003037
:101E8800A8000030A9003F30AA003F08AB00400876
:101E9800AC004108AD008C31352420002808B8007A
:101EA8002908B9002A08BA0008000B304502031CAB
:101EB800D32F4508BB00BC013B08F2003C08F300E7
:101EC8000A30F0000030F100973167278E31710831
:101ED8002000A501A5077008A401A4070330A600E7
:101EE8000030A70096314B268E312000250885004A
:101EF80024088400283084079030853D003FA800DE
:101F0800013FA900023FAA000A30F7000030F8009C
:101F18004508BD00BE013D08F9003E08FA008831B9
:101F280004208E317708093E2000A4000030783D57
:101F3800A5000330A6000030A70096314B268E314D
:101F48002000250885002408840028308407903064
:101F5800853D003FAB00013FAC00023FAD008C3136
:101F680035248E3120002808C2002908C3002A0819
:101F7800C4000030A8000030A9003F30AA00420881
:101F8800AB004308AC004408AD008C313524200078
:101F98002808B8002908B9002A08BA000800003043
:101FA800A8000030A9003F30AA004508BB00BC01CA
:101FB8003B08A4003C08A5000330A6000030A70099
:101FC80096314B268E312000250885002408840090
:101FD800283084079030853D003FAB00013FAC00BE
:101FE800023FAD008C31352420002808B8002908AC
:101FF800B9002A08BA00080001340034003400345B
:102008000A340034003400346434003400340034BA
:10201800E8340334003400341034273400340034F6
:10202800A034863401340034403442340F34003450
:1020380080349634983400340034E134F53405346F
:102048000034CA349A343B34003480343F34CD34BD
:10205800CC343D34D73423343C34123483343A34CA
:10206800B734D1343834C634273437343834863426
:102078003534C034D6343334CC342B343234703421
:1020880089343034E734DB342E34E5343C341E34C0
:102098004234A2340D34003480343F3400342034C8
:1020A80041340034C834423400347A34443440343F
:1020B8001C3446345034C3344734243474344934DB
:1020C800973418344B34BC34BE344C346B346E34CF
:1020D8004E340334153450347934AD346034F33429
:1020E800493471345634443444343D3425346634E8
:0220F8000034B2
:102C4600640080010131890B242E003496316926F7
:102C560096318A316222803102287208710470042A
:102C6600031908008030F20608007808F000790899
:102C7600F100F2018E30FB007B08F300F40188318D
:102C860058207008F8007108F9007208FA00080068
:102C9600FC01FD012000241C542E2608FC072708F1
:102CA600FD3D0130A635A70D890B552E0130A53601
:102CB600A40C890B5A2E25082404031D4D2E7D08CD
:102CC600A501A5077C08A401A4070800210019088E
:102CD60087395838990023000C1420000C10210065
:102CE6000C1483309D051D109D109E171E088F39EC
:102CF60060389E001E11FC309E059B019C018A31A6
:102D0600F6229631013089313F2196310C308931D6
:102D16003F2108008E30FC007C08FD00FF307B055B
:102D26000319A12E0130FB36FA0CF90CF80C890BAD
:102D3600962E0130FC007C08FD07912E7808F000E5
:102D46007908F1007A08F2007D08FC007C08F3009F
:102D5600F401883158207008F8007108F9007208EB
:102D6600FA000800F600C62E7308803EC22E7308CD
:102D7600C03EC22E7308943EC22E7308D43EF500A0
:102D86007508F700D42E7608013A0319B72E033AD0
:102D96000319BA2E013A0319BD2E073A0319C02E9C
:102DA600D42E770889313F21963174088600870131
:102DB6008108031908007408860087010108893113
:102DC600D02196310130F5007508F407D82EF21F90
:102DD600002F7009F6007109F7007209F800F60A6B
:102DE6000319F70A0319F80A00307607F0000030D5
:102DF600773DF1008030783DF200F51F162F7309FC
:102E0600F6007409F7007509F800F60A0319F70ABF
:102E16000319F80A00307607F3000030773DF40016
:102E26008030783DF5008030F2068030F506750872
:102E36007202031D080074087102031D080073085E
:102E460070020800730872047104700403195E2F7F
:102E5600F901F90AF31B3B2F0130F035F10DF20DA4
:102E6600F30D890B302F0130F8007808F9072D2F64
:102E760073087702031D492F72087602031D492F36
:102E860071087502031D492F70087402031C532F25
:102E96007008F4027108F53B7208F63B7308F73BBD
:102EA6000130F336F20CF10CF00C890B542F013083
:102EB600F902031D3B2F7708F3007608F200750828
:102EC600F1007408F0000800F601F31F712FF209F3
:102ED600F309F20A0319F30AF601F60AF11F782F2D
:102EE600F009F109F00A0319F10A710870040319CF
:102EF6009F2FF501F50AF11B8A2F0130F035F10DF0
:102F0600890B812F0130F4007408F5077E2F7108B4
:102F16007302031D902F70087202031C962F70080F
:102F2600F2027108F33B0130F136F00C890B972F52
:102F36000130F502031D8A2F76080319A72FF2091F
:102F4600F309F20A0319F30A7308F101F10772088B
:102F5600F001F00708000030FC000030FB000030F4
:102F6600FA000030F9007308720471047004031942
:102F7600F72FFD01FD0AF31BCC2F0130F035F10DC3
:102F8600F20DF30D890BC12F0130F8007808FD070B
:102F9600BE2F0130F935FA0DFB0DFC0D890BCD2F37
:102FA60073087702031DE12F72087602031DE12FD5
:102FB60071087502031DE12F70087402031CEC2FC3
:102FC6007008F4027108F53B7208F63B7308F73B8C
:102FD60079140130F336F20CF10CF00C890BED2F5D
:102FE6000130FD02031DCC2F7C08F3007B08F200A4
:0A2FF6007A08F1007908F0000800E5
:020000040001F9
:04000E00A4C9FFDCA6
:00000001FF
