:08000000803102288731F02F46
:100B0A002000110E890C01390800F000700823003A
:100B1A009A00080023001908F0007008F100710813
:100B2A00080023009E189B2D0130080000300800A1
:100B3A008531A425853186315F268031022821003E
:100B4A0019088739583899008531BA250800F10003
:100B5A00F0013A3071020318B82D30307102031CCB
:100B6A00B82DF001F00A700C080023009E019D01C7
:100B7A001E121E159F151D1019309B002000911280
:100B8A00111223009D179E161D1621000E138E1793
:100B9A000800F1008531962585310038031DCF2DD7
:100BAA00710886008701010885318A258531710817
:100BBA0086008701F10A810803190800CF2DF40184
:100BCA00F501701CEC2D7208F4077308F53D01302D
:100BDA00F235F30D890BED2D0130F136F00C890B4E
:100BEA00F22D71087004031DE62D7508F101F10755
:100BFA007408F001F0070800790878040319282E10
:100C0A00FD01FD0AF91B132E0130F835F90D890B88
:100C1A000A2E0130FC007C08FD07072E79087B02AA
:100C2A00031D192E78087A02031C1F2E7808FA026F
:100C3A007908FB3B0130F936F80C890B202E01307C
:100C4A00FD02031D132E7B08F901F9077A08F80142
:100C5A00F80708002000A201853185258631003A6F
:100C6A000319312E85318F2586312000A0002008F6
:100C7A00A10021080A3A03194F2E2108A0002208D0
:100C8A00333E86008701200881000130A000200839
:100C9A00A207312E2208333E8600870181013330B4
:100CAA008631CA2677082000B201B2077608B10158
:100CBA00B10708000A302000A0008830A1003330B4
:100CCA008731352786318531962586310038031DCF
:100CDA00682E33308531CE25863186312F268631EE
:100CEA0001302000B135B20D890B772E1830A000E3
:100CFA008830A1003208A301A3073108A201A20784
:100D0A00333087313527863185319625863100384B
:100D1A00031D892E33308531CE2586315F2EF501AC
:100D2A00F601710870040319C32EF701F70AF11BC3
:100D3A00A82E0130F035F10D890B9F2E0130F400F9
:100D4A007408F7079C2E0130F535F60D890BA92E8C
:100D5A0071087302031DB32E70087202031CBA2EA7
:100D6A007008F2027108F33B75140130F136F00C89
:100D7A00890BBB2E0130F702031DA82E7608F1015C
:100D8A00F1077508F001F0070800FD007D088600EC
:100D9A0087010108203A031DD72E0130F800780890
:100DAA00FD07CB2E7D08860087010108093A031941
:100DBA00D22EFB01FC01FA017D0886008701010899
:100DCA002D3A031DED2E0130F8007808FA07F42EAB
:100DDA007D088600870101082B3A031DF82E013091
:100DEA00F8007808FD077D0886008701010885312B
:100DFA00AC258631031C1F2F7C08F101F1077B0803
:100E0A00F001F0070A30F2000030F3008531E425E2
:100E1A0086317D088600870101087007F80071088D
:100E2A000318710AF9007808D03EFB00FF30793DBB
:100E3A00FC00F42E7A0803192E2F7B09F8007C098E
:100E4A00F900F80A0319F90A7808F6007908F70090
:100E5A0008007C08F701F7077B08F601F607080087
:100E6A002000AF002230A4002408A9002108A50010
:100E7A002008A400A00A0319A10A2408840025084E
:100E8A0085000008A6002608B000B0080319EB2F59
:100E9A003008253A03195D2F3008A4002F08860070
:100EAA008701240881000130A4002408AF073B2FE2
:100EBA00A801642FC030A4002408A804782F2108B0
:100ECA00A5002008A400A00A0319A10A2408840086
:100EDA00250885000008B000003A0319EB2F753A7F
:100EEA0003195F2F3B2F290886008701403FAA007C
:100EFA00413FAB000230A4002408A907B001B00AA0
:100F0A003008053A0319A82F3008A400A501A43512
:100F1A00A50D0030240784008830253D8500003F58
:100F2A00A600013FA70027082B02031D9E2F2608B3
:100F3A002A02031CA82F0130A4002408B007300895
:100F4A00053A031D892F3008A4002408AE00FF309B
:100F5A00A4002408AE072E08FF3A03193B2F0A30D3
:100F6A00F8000030F9002E08A400A501A435A50D4B
:100F7A000030240784008830253D8500003FF000BA
:100F8A00013FF1002B08F301F3072A08F201F207E7
:100F9A008631942687317108FB01FB077008FA0134
:100FAA00FA078631012687317808303E2000A600EC
:100FBA002608B0003008A4002F08860087012408FC
:100FCA0081000130A4002408AF07AC2F2F08860047
:100FDA00870181010800B101B201B301B401B50171
:100FEA00B601B701B801B901BA01BB01BC017E1053
:100FFA00200085319D2D013400340A3400346434D4
:10100A000034E834033410342734453473346334F9
:10101A00723469346234653420346E3475346D3414
:10102A003A340A34003468346F346C34613420340E
:08103A00253475340A3400343A
:020000040001F9
:04000E00A4C9FFDCA6
:00000001FF
