:10000000803102288731F52FFD01F91F0E28F809EC
:10001000F909F80A0319F90AFD01FD0A7808F00048
:100020007908F100F2018E30FB007B08F3007D08B7
:10003000FC007C08F4008931D2217008F8007108B6
:10004000F9007208FA000800703086008701403F0E
:10005000F600413FF700423FF800433FF90003102C
:10006000780D790DFA007A082000A500A508031D77
:1000700042280030F3000030F2000030F100003080
:10008000F0000800733086008701403FF600413FD2
:10009000F700423FF800433FF9000310780D790D57
:1000A000FA007A08A400A408031D5F280030F300BA
:1000B0000030F2000030F1000030F0000800703035
:1000C00086008701003081044131003081044131D4
:1000D0008030810441310030810470308600870116
:1000E000FF3081054131FF3081054131FF3081050D
:1000F0004131003081057330860087010030810472
:10010000413100308104413180308104413100307F
:100110008104733086008701FF3081054131FF3053
:1001200081054131FF3081054131003081050030CA
:10013000A3000030A2000030A1000030A0007F30FA
:10014000A502A0302407F6007608A5022030F600AC
:100150007608A4000130A035A10DA20DA30D890BD6
:10016000AB28733086008701403FF600413FF7001F
:10017000423FF800433FF900703086008701403F5E
:10018000FA00413FFB00423FFC00433FFD0079087D
:100190007D02031DD52878087C02031DD528770829
:1001A0007B02031DD52876087A02031CF2287330DF
:1001B00086008701403FF600413FF700423FF800CC
:1001C000433FF90070308600870176088102413193
:1001D0007708813B41317808813B41317908813B87
:1001E0007D31201470308600870181354131810DC9
:1001F0004131810D4131810D7D310130A402031D5A
:10020000AA28A51F1F292508803A9F3E03181129F7
:100210000030F3000030F2000030F1000030F00058
:1002200008000130A336A20CA10CA00C890B1229E6
:100230000130F6007608A507031938291129203066
:100240002502031C35290030F3000030F200003095
:10025000F1000030F00008000130A035A10DA20D22
:10026000A30D890B2D290130A502A508031D2C29FA
:100270002308F3002208F2002108F1002008F00012
:1002800008002000C800C81F6C2AC809C80A48080E
:10029000803A123E031CEE290A30F7000030F800C5
:1002A0004808F200F301F21BF3036430F000003061
:1002B000F1008831E52081317108FA01FA077008F0
:1002C000F901F90789317E2181317708093E200043
:1002D000A4000030783DA5000330A6000030A70040
:1002E0009731C32781312000250885002408840028
:1002F000283084079030853D003FB000013FB100B9
:10030000023FB2006430F7000030F8004808F900FE
:10031000FA01F91BFA0389317E2181317708123EF7
:100320002000A4000030783DA5000330A600003076
:10033000A7009731C32781312000250885002408B4
:100340008400283084079030853D003FB300013F92
:10035000B400023FB5008B316223813120003008A8
:10036000C5003108C6003208C7004808F200F30192
:10037000F21BF3030A30F0000030F1008831E52071
:10038000813171082000A501A5077008A401A40708
:100390000330A6000030A7009731C3278131200029
:1003A0002508850024088400283084079030853D86
:1003B000003FB000013FB100023FB2004508B3006A
:1003C0004608B4004708B5008B316223200030088E
:1003D000C0003108C1003208C20008004808803A55
:1003E000753E031C4F2A4808F200F301F21BF30389
:1003F0000A30F0000030F1008831E52081317108C9
:100400002000A501A5077008A401A4070330A600D9
:100410000030A7009731C3278131200025088500CF
:1004200024088400283084079030853D003FB000C8
:10043000013FB100023FB2000A30F7000030F8007F
:100440004808F900FA01F91BFA0389317E2181314C
:100450007708093E2000A4000030783DA500033055
:10046000A6000030A7009731C3278131200025085E
:10047000850024088400283084079030853D003FA3
:10048000B300013FB400023FB5008B31622320006E
:100490003008C0003108C1003208C2000800480816
:1004A000C300C4014308A4004408A5000330A6000B
:1004B0000030A7009731C3272000250885002408B5
:1004C0008400283084079030853D003FC000013F04
:1004D000C100023FC20008004808803A123E031CD7
:1004E000132B0A30F7000030F8004808F200F3013F
:1004F000F21BF3036430F0000030F1008831E52096
:1005000081317108FA01FA077008F901F907893198
:100510007E2181317708093E2000A4000030783D1B
:10052000A5000330A6000030A7009731C327813112
:10053000200025088500240884004F30840790306F
:10054000853D003FB000013FB100023FB200643082
:10055000F7000030F8004808F900FA01F91BFA0327
:1005600089317E2181317708123E2000A4000030BD
:10057000783DA5000330A6000030A7009731C327BF
:100580008131200025088500240884004F3084072D
:100590009030853D003FB300013FB400023FB500FD
:1005A0008B316223813120003008C5003108C6003C
:1005B0003208C7004808F200F301F21BF3030A30C7
:1005C000F0000030F1008831E52081317108200011
:1005D000A501A5077008A401A4070330A6000030F8
:1005E000A7009731C3278131200025088500240802
:1005F00084004F3084079030853D003FB000013FBC
:10060000B100023FB2004508B3004608B4004708F5
:10061000B5008B31622320003008C0003108C100D2
:100620003208C20008004808803A753E031C742B4B
:100630004808F200F301F21BF3030A30F000003027
:10064000F1008831E520813171082000A501A5075E
:100650007008A401A4070330A6000030A70097315A
:10066000C3278131200025088500240884004F30ED
:1006700084079030853D003FB000013FB100023F4C
:10068000B2000A30F7000030F8004808F900FA011B
:10069000F91BFA0389317E2181317708093E200058
:1006A000A4000030783DA5000330A6000030A7006C
:1006B0009731C32781312000250885002408840054
:1006C0004F3084079030853D003FB300013FB400B8
:1006D000023FB5008B31622320003008C000310892
:1006E000C1003208C20008004808C300C401430822
:1006F000A4004408A5000330A6000030A7009731ED
:10070000C327200025088500240884004F30840773
:100710009030853D003FC000013FC100023FC20054
:1007200008002100BD0063302000E60066082100BB
:10073000A70020006208E7006108E600E10A03194B
:10074000E20A66088400670885000008E800680877
:100750002100C100C1080319F02F4108253A0319EF
:10076000B42B41082000E22FB001B101B92B3115A3
:10077000CF2B20006208E7006108E600E10A0319B8
:10078000E20A660884006708850000082100C100AD
:10079000003A0319F02F663A0319B72B992B003052
:1007A00030052000E6000730210031052000E70079
:1007B000670866040319D32F06302100B200003009
:1007C000B300270886008701403FBE00413FBF00BD
:1007D000423FC00003302000E60066082100A70762
:1007E0003E08F0003F08F1004008F2000030F3003E
:1007F0000030F4000030F5008831292083310318DF
:10080000162C21003E08F0003F08F1004008F200DD
:1008100097317827833170082100BE007108BF002E
:100820007208C0000330B0040030B1042100BB01E5
:10083000BC0140083F043E040319DE2CBE30860094
:100840008701403F2000E600413FE700423FE800CB
:10085000433FE9000F30E936E80CE70CE60C890B62
:100860002B2CFF306605EA0000306705EB006A08B4
:10087000823E2100BB00FF3020006B3D2100BC0008
:10088000FF30BB07FF30BC3D03302000A400003028
:10089000A50021003C082000A701A70721003B0874
:1008A0002000A601A6079731C32783312000250821
:1008B0002100BC01BC07200024082100BB01BB07AC
:1008C0000A30F7000030F8003C08FA01FA073B084C
:1008D000F901F90789317E21833178082100BC01B3
:1008E000BC077708BB01BB07BC1F7A2CFF30BB07D6
:1008F000FF30BC3D3B03FF3A813141218331200071
:1009000040082100B800200041082100B900200063
:1009100042082100BA003E082000B00021003F0834
:100920002000B100210040082000B200210038085A
:100930002000B300210039082000B40021003A084B
:100940002000B5008B316223833120003008210064
:10095000B800200031082100B90020003208210031
:10096000BA003808F0003908F1003A08F200003007
:10097000F3008030F4003F30F500883129208331C6
:100980000318C72CFF302100BB07FF30DD2C2100EE
:100990003808F0003908F1003A08F2000030F3009E
:1009A0002030F4004130F500883129208331031CC8
:1009B000DE2C01302100BB070030BC3D2100330894
:1009C000803A2000E60080306602031DEA2C0D30DC
:1009D000210032020318132D210032088E31952692
:1009E000833120004008CE004108CF004208D000EB
:1009F00021003E082000D10021003F082000D20045
:100A0000210040082000D3008D319F258331200034
:100A10004E082100BE0020004F082100BF0020002A
:100A200050082100C00021003C08803A2000E60068
:100A300080306602031D1F2D0A3021003B0203187F
:100A40004A2D210040083F043E0403199A2D3E0818
:100A50002000C90021003F082000CA0021004008F2
:100A60002000CB008A313222833120004C084B0415
:100A70004A044904031D9A2D21003C08803A2000B5
:100A8000E60080306602031D482D023021003B0243
:100A9000031C9A2D21003808F0003908F1003A08AB
:100AA000F2007030F3008930F4004030F5008831F6
:100AB0002920833103185E2DF7305F2DF830210097
:100AC000BB07FF30BC3D3B08813141218331200011
:100AD00040082100B800200041082100B900200092
:100AE00042082100BA003E08F0003F08F10040082B
:100AF000F2003808F3003908F4003A08F5008C31A8
:100B00001624833173082100A6007208A50071081D
:100B1000A4007008A3002608B7002508B600240822
:100B2000B5002308B4000030BE000030BF00003024
:100B3000C000E82D21003E082000C90021003F0828
:100B40002000CA00210040082000CB008A31322258
:100B5000833120004C082100B70020004B08210001
:100B6000B60020004A082100B500200049082100F5
:100B7000B4003708FB003608FA003508F9003408DD
:100B8000F80088310120833178082000DB007908E3
:100B9000DC007A08DD0021003E082000DE00210094
:100BA0003F082000DF00210040082000E0009731CE
:100BB000AA27833120005B082100BE0020005C08CA
:100BC0002100BF0020005D082100C000BB01BC0166
:100BD000C101C10A41080A3A0319252E4108200023
:100BE000E600E701E635E70DE635E70D003066077C
:100BF00084009030673D8500003FE800013FE90038
:100C0000023FEA00033FEB006B0821003702031D9F
:100C1000192E20006A0821003602031D192E20001B
:100C2000690821003502031D192E200068082100E3
:100C30003402031C252E01302000E6006608210046
:100C4000C10741080A3A031DEE2D0330300520008C
:100C5000E6000030210031052000E7006708660447
:100C60000319402E2D30E60021003D088600870143
:100C70002000660881000130E60066082100BD07FB
:100C8000FF302000E60066082100C1074108FF3A56
:100C90000319A82E41082000E600E701E635E70D1C
:100CA000E635E70D0030660784009030673D85002B
:100CB000003FF000013FF100023FF200033FF3006C
:100CC00021003708F7003608F6003508F50034082B
:100CD000F40089312C21833173082100AB007208A4
:100CE000AA007108A9007008A8000030F3000030C5
:100CF000F2000030F1000A30F0002B08F7002A085B
:100D0000F6002908F5002808F4008831A320833173
:100D100073082100AB007208AA007108A9007008CE
:100D2000A8002808303E2000332E30302000E60096
:100D300021003D08860087012000660881000130FF
:100D4000E60066082100BD07FF30BB07FF30BC3D51
:100D50003C08803A2000E60080306602031DB32E76
:100D6000013021003B020318952E21003308803A00
:100D70002000E60080306602031DC12E09302100EC
:100D80003202031CC52E0830C72E21003208200075
:100D9000E60066082100C10041082000E600E701E6
:100DA000E61BE70366082100B20220006708210065
:100DB000B33B41080319EB2E2E302000E600210042
:100DC0003D08860087012000660881000130E600AA
:100DD00066082100BD07410881314121833120008F
:100DE00040082100A000200041082100A1002000AF
:100DF00042082100A20020082000B30021002108A1
:100E00002000B400210022082000B50021003E0887
:100E10002000B00021003F082000B1002100400860
:100E20002000B2008B316223833120003008C900DA
:100E30003108CA003208CB008A31322283312000C7
:100E40004C082100B70020004B082100B60020000C
:100E50004A082100B500200049082100B400FF30F5
:100E60002000E60066082100C1074108FF3A031987
:100E7000CE2F41082000E600E701E635E70DE63514
:100E8000E70D0030660784009030673D8500003F25
:100E9000F000013FF100023FF200033FF3002100A8
:100EA0003708F7003608F6003508F5003408F40076
:100EB00089312C21833173082100AF007208AE0004
:100EC0007108AD007008AC000030F3000030F20093
:100ED0000030F1000A30F0002F08F7002E08F6006D
:100EE0002D08F5002C08F4008831A3208331730805
:100EF0002100AF007208AE007108AD007008AC00B0
:100F00002C08303E2000E60021003D0886008701C5
:100F10002000660881000130E60066082100BD0758
:100F200041082000E600E701E635E70DE635E70D6C
:100F30000030660784009030673D8500003FF00078
:100F4000013FF100023FF200033FF30021003708A8
:100F5000F7003608F6003508F5003408F40088314B
:100F6000A320833173082100B7007208B60071080E
:100F7000B50070082E2F30302000E60021003D081B
:100F8000860087012000660881000130E6006608BF
:100F90002100BD07FF30B207FF30B33D33083204F4
:100FA0000319992BBB2F0330210030052000E600E8
:100FB0000030210031052000E700670866040319AE
:100FC000992B2D30E60021003D0886008701200086
:100FD000660881000130E60066082100BD07992BF4
:100FE0003D088600870181010800C230840000307E
:100FF00085002130973164277E1020009731712FB2
:101002008E30FC007C08FD00FF307B05031915289B
:101012000130FB36FA0CF90CF80C890B0A28013066
:10102200FC007C08FD0705287808F0007908F1002B
:101032007A08F2007D08FC007C08F300F401893193
:10104200D2217008F8007108F9007208FA0008004D
:10105200F21F3F287009F6007109F7007209F800C3
:10106200F60A0319F70A0319F80A00307607F000A6
:101072000030773DF1008030783DF200F51F5528B1
:101082007309F6007409F7007509F800F60A0319E6
:10109200F70A0319F80A00307607F3000030773DAB
:1010A200F4008030783DF5008030F2068030F5069D
:1010B20075087202031D080074087102031D0800FE
:1010C200730870020800F901FA0121009B019C01DA
:1010D2007008F200F20DF20D1D08720683397206D5
:1010E2009D001D149D140430F3003D30F200F20BFC
:1010F2007828F30B7828003221009D187D281D10D6
:101102001C08F200F3017208F9007308FA001B08C8
:10111200F200F3017A08F5007908F4007408F5008A
:10112200F40172087404F70073087504F800770874
:10113200F9007808FA007A08F101F1077908F0015C
:10114200F007080073087204710470040319DC28A4
:10115200F901F90AF31BB9280130F035F10DF20D4E
:10116200F30D890BAE280130F8007808F907AB2897
:1011720073087702031DC72872087602031DC72869
:1011820071087502031DC72870087402031CD12858
:101192007008F4027108F53B7208F63B7308F73BDE
:1011A2000130F336F20CF10CF00C890BD22801302D
:1011B200F902031DB9287708F3007608F2007508D2
:1011C200F1007408F0000800F601F31FEF28F2099D
:1011D200F309F20A0319F30AF601F60AF11FF628D7
:1011E200F009F109F00A0319F10A710870040319F0
:1011F2001D29F501F50AF11B08290130F035F10D21
:10120200890BFF280130F4007408F507FC287108E7
:101212007302031D0E2970087202031C1429700840
:10122200F2027108F33B0130F136F00C890B1529FB
:101232000130F502031D0829760803192529F20950
:10124200F309F20A0319F30A7308F101F1077208AC
:10125200F001F00708000030FC000030FB00003015
:10126200FA000030F9007308720471047004031963
:101272007529FD01FD0AF31B4A290130F035F10DF4
:10128200F20DF30D890B3F290130F8007808FD07B4
:101292003C290130F935FA0DFB0DFC0D890B4B2968
:1012A20073087702031D5F2972087602031D5F2906
:1012B20071087502031D5F2970087402031C6A29F4
:1012C2007008F4027108F53B7208F63B7308F73BAD
:1012D20079140130F336F20CF10CF00C890B6B2906
:1012E2000130FD02031D4A297C08F3007B08F2004D
:1012F2007A08F1007908F00008002000A101F81F27
:101302008929F709F809F70A0319F80AA101A10ABC
:10131200FA1F9429F909FA09F90A0319FA0A01309C
:10132200FB007B08A106A201A30178087704031938
:10133200C329A001A00AF81BA8290130F735F80D2E
:10134200890B9F290130FB007B08A0079C290130F3
:10135200A235A30D890BA92978087A02031DB329A6
:1013620077087902031CBA297708F9027808FA3B50
:1013720022140130F836F70C890BBB290130A00288
:10138200031DA82921080319CB29A209A309A20A2E
:101392000319A30A2308F801F8072208F701F7073F
:1013A200080073080319DA29720871047004031D16
:1013B200EB290030F0000030F1000030F2000800AC
:1013C2000130F5007508F3070130F236F10CF00C2C
:1013D200890BE629FE3072050319042AE12901303E
:1013E200F5007508F3070130F007003003180130EB
:1013F200F107003003180130F2070130F236F10C28
:10140200F00C890BFF29FF3072050319112AF0290C
:101412000130F3020130F035F10DF20D890B0C2A87
:10142200F11F092A73181B2AFF30F0057F30F105DE
:10143200FF30F2050310F30C7308F500F601F70113
:101442001030F535F60DF70D890B222A7508F004D8
:101452007608F1047708F204740803190800F217F9
:10146200080020004908CD004A08CE004B08CF00F2
:1014720003104E0D4F0DD0005008D600D608031DA4
:101482004B2A0030CC000030CB000030CA000030C4
:10149200C90008004908CD004A08CE004B08CF0019
:1014A2001730CF36CE0CCD0C890B522A4D08D00006
:1014B2005008D100CA17FF30C905FF30CA050030F5
:1014C200CB054908D2004A08D3004B08D400D50105
:1014D2008E30D602D61F892A5608803A8F3E0318CC
:1014E2007B2A0030CC000030CB000030CA00003034
:1014F200C90008000130D536D40CD30CD20C890BAC
:101502007C2A0130CD004D08D6070319A22A7B2A76
:1015120018305602031C9F2A0030CC000030CB004A
:101522000030CA000030C90008000130D235D30DA6
:10153200D40DD50D890B972A0130D602D608031D8A
:10154200962A51080319B02AD209D309D409D50918
:10155200D20A0319D30A0319D40A0319D50A550862
:10156200CC005408CB005308CA005208C900080036
:1015720020002308A6002408A7002508A8000310BD
:10158200270D280DA9002908AE00AE08031DD02A98
:101592000030A0000030A1000030A20008002008A6
:1015A200A6002108A7002208A8000310270D280D75
:1015B200A9002908AF00AF08031DE62A0030A000E9
:1015C2000030A1000030A20008000030AB00003063
:1015D200AC000030AD0089302F07A6002608AE020D
:1015E2002308A6002408A7002508A8001030A83662
:1015F200A70CA60C890BF82A2608A9002908AF0017
:101602002008A6002108A7002208A8001030A8364A
:10161200A70CA60C890B082B2608A9002908AF06DF
:101622008030A6002608AF05A417FF30A305FF30BF
:10163200A4050030A505A117FF30A005FF30A105C4
:101642000030A2051830A6002608AA000130AB35EA
:10165200AC0DAD0D890B282B22082502031D372B5B
:1016620021082402031D372B20082302031C402BD0
:101672002008A3022108A43B2208A53B2B14013019
:10168200A335A40DA50D890B412B0130AA02031D20
:10169200272B2B08F0002C08F1002D08F2002E0851
:1016A200A6002608F3002F08A7002708F4008931B6
:1016B200D22170082000A0007108A1007208A200C7
:1016C200080020003008B6003108B7003208B80020
:1016D2000310370D380DB9003908BA00BA08031DD6
:1016E200792B0030B0000030B1000030B2000800A9
:1016F2003308B6003408B7003508B8000310370DB8
:10170200380DB9003908BF00BF08031D8F2B003008
:10171200B0000030B1000030B20008003F087B3E4C
:10172200B6003608BA073008B6003108B7003208EA
:10173200B8001030B836B70CB60C890B9B2B3608A4
:10174200B9003908BF003308B6003408B7003508BD
:10175200B8001030B836B70CB60C890BAB2B360874
:10176200B9003908BF068030B6003608BF05B11788
:10177200B417FF30B305FF30B4050030B5050030B3
:10178200BB000030BC000030BD000730B600360898
:10179200BE00301CD22B3308BB073408BC3D3508D1
:1017A200BD3D0130B236B10CB00C890BD32B0130E8
:1017B200B335B40DB50D890BD92B0130BE02031D13
:1017C200CA2B0930B6003608BE00301CEE2B330897
:1017D200BB073408BC3D3508BD3D0130B236B10C03
:1017E200B00C890BEF2B0130BD36BC0CBB0C890B46
:1017F200F52B0130BE02031DE62B3B08F0003C082E
:10180200F1003D08F2003A08B6003608F3003F083E
:10181200B7003708F4008931D22170082000B000E7
:101822007108B1007208B20008007008F600710871
:10183200F7007208F8000310770D780DF9007908A7
:101842002000A500A508031D2F2C0030F300003056
:10185200F2000030F1000030F00008007308F600DA
:101862007408F7007508F8000310770D780DF90079
:101872007908A400A408031D472C0030F3000030AF
:10188200F2000030F1000030F0000800F117FF30E4
:10189200F005FF30F1050030F205F417FF30F305D3
:1018A200FF30F4050030F5050030A3000030A2003F
:1018B2000030A1000030A0007F30A502983024073C
:1018C200F6007608A5021830F6007608A40001306A
:1018D200A035A10DA20DA30D890B692C750872020A
:1018E200031D792C74087102031D792C7308700290
:1018F200031C822C7308F0027408F13B7508F23B5A
:1019020020140130F035F10DF20D890B832C0130DA
:10191200A402031D682CA51FAA2C2508803A973E15
:1019220003189C2C0030F3000030F2000030F1006C
:101932000030F00008000130A336A20CA10CA00C6C
:10194200890B9D2C0130F6007608A5070319C32CDC
:101952009C2C18302502031CC02C0030F3000030F0
:10196200F2000030F1000030F00008000130A03534
:10197200A10DA20DA30D890BB82C0130A502A5085B
:10198200031DB72C2308F3002208F2002108F100FE
:101992002008F000080021004208E3004308E400A8
:1019A2004408E5000030F0000030F1008831642086
:1019B2008C3171082000EF01EF077008EE01EE078D
:1019C2000130F0000030F100883164208C31710860
:1019D2002100E701E7077008E601E6076708803A99
:1019E2002000EC006F08803A6C02031DFB2C6E088D
:1019F2002100660203182D2D9A302000A000193014
:101A0200A1004030A200210066092000EC00210064
:101A120067092000ED00EC0A0319ED0A6E086C0755
:101A2200F8006F086D3DF900803104208C31780890
:101A32002000A3007908A4007A08A5008A31B922FF
:101A42008C31200020082100C20020002108210042
:101A5200C300200022087D2D20006F08803AEC0090
:101A620021006708803A20006C02031D3C2D2100F2
:101A7200660820006E0203187F2D00302000B0009F
:101A82008030B100BF30B2009A30A0001930A100FE
:101A92004030A2006E09EC006F09ED00EC0A031958
:101AA200ED0A2100660820006C07F8002100670893
:101AB20020006D3DF900803104208C31780820002F
:101AC200A3007908A4007A08A5008A31B9228C31D2
:101AD20020002008B3002108B4002208B5008B3191
:101AE20062238C31200030082100C200200031081E
:101AF2002100C300200032082100C40076302000FB
:101B0200E1009030E200210042082000E3002100C1
:101B120043082000E400210044082000E500C5300D
:101B2200833191238C3197316A278C310038031D20
:101B3200942DC530973194278C31CC2C20004E083F
:101B4200D4004F08D5005008D6000310550D560D8D
:101B5200D7005708DA005108D4005208D5005308BC
:101B6200D6000310550D560DD7005708D9005A0854
:101B72000319C72D59085A020318CE2D5A03FF3AEA
:101B82005907D40019305402031CCE2D5108CE003F
:101B92005208CF005308D000080059080319080062
:101BA2005A0859020318DD2D5903FF3A5A07D40087
:101BB20019305402031808000630D4005408D80023
:101BC200D01BD817D31B5817CF17FF30CE05FF30C5
:101BD200CF050030D005D217FF30D105FF30D20536
:101BE2000030D30559085A020318192E0130D13595
:101BF200D20DD30D890BF82D0130D90259085A069E
:101C02000319142E0130D802580807390319142E6B
:101C1200F72D0130D036CF0CCE0C890B0B2E0130B4
:101C2200D4005408DA075A08590603193E2E0A2E20
:101C32005A08590203183E2E0130CE35CF0DD00D71
:101C4200890B1E2E0130DA0259085A0603193A2E60
:101C52000130D8025808073903193A2E1D2E0130D7
:101C6200D336D20CD10C890B312E0130D40054085A
:101C7200D9075A085906031D302ED81F502EFF309F
:101C8200CE06FF30CF06FF30D0060130CE0700303F
:101C920003180130CF07003003180130D007581F56
:101CA200622EFF30D106FF30D206FF30D30601305C
:101CB200D107003003180130D20700300318013079
:101CC200D307D8014E08D1074F08D23D5008D33D63
:101CD200D31F7D2EFF30D106FF30D206FF30D30650
:101CE2000130D107003003180130D2070030031849
:101CF2000130D307D801D80A5108F0005208F10088
:101D02005308F2005A08D4005408F3005808D500CA
:101D12005508F4008931D22170082000CE007108E4
:101D2200CF007208D00008002000CD006E304D02B6
:101D3200031C592F0A30F7000030F8004D08C30089
:101D4200C4014308F2004408F3006430F00000309C
:101D5200F1008831E5208E317108FA01FA07700826
:101D6200F901F90789317E218E317708093E200079
:101D7200A4000030783DA5000330A6000030A70083
:101D82009731C3278E31200025088500240884005E
:101D9200283084079030853D003FB000013FB100FC
:101DA200023FB2006430F7000030F8004D08C50071
:101DB200C6014508F9004608FA0089317E218E31B4
:101DC2007708123E2000A4000030783DA5000330C1
:101DD200A6000030A7009731C3278E3120002508C6
:101DE200850024088400283084079030853D003F18
:101DF200B300013FB400023FB5008B3162238E3144
:101E020020003008CA003108CB003208CC004D084F
:101E1200C300C4014308F2004408F3000A30F00092
:101E22000030F1008831E5208E3171082000A501D3
:101E3200A5077008A401A4070330A6000030A7007C
:101E42009731C3278E31200025088500240884009D
:101E5200283084079030853D003FB000013FB1003B
:101E6200023FB2004A08B3004B08B4004C08B50068
:101E72008B3162238E3120003008C7003108C80040
:101E82003208C9000030B0000030B1003F30B2006B
:101E92004708B3004808B4004908B5008B316223F3
:101EA20020003008C0003108C1003208C20008001A
:101EB2000B304D02031CD32F4D08C300C40143084D
:101EC200F2004408F3000A30F0000030F1008831DB
:101ED200E5208E3171082000A501A5077008A40134
:101EE200A4070330A6000030A7009731C3278E3124
:101EF20020002508850024088400283084079030BB
:101F0200853D003FB000013FB100023FB2000A3000
:101F1200F7000030F8004D08C500C6014508F90079
:101F22004608FA0089317E218E317708093E200069
:101F3200A4000030783DA5000330A6000030A700C1
:101F42009731C3278E31200025088500240884009C
:101F5200283084079030853D003FB300013FB40034
:101F6200023FB5008B3162238E3120003008CA0057
:101F72003108CB003208CC000030B0000030B10094
:101F82003F30B2004A08B3004B08B4004C08B50019
:101F92008B31622320003008C0003108C1003208B2
:101FA200C20008000030B0000030B1003F30B20083
:101FB2004D08C300C4014308A4004408A50003302F
:101FC200A6000030A7009731C3278E3120002508D4
:101FD200850024088400283084079030853D003F26
:101FE200B300013FB400023FB5008B3162232000F1
:101FF2003008C0003108C1003208C20008000134B4
:102002000034003400340A340034003400346434C0
:10201200003400340034E834033400340034103423
:10202200273400340034A034863401340034403480
:1020320042340F34003480349634983400340034FF
:10204200E134F53405340034CA349A343B34003474
:1020520080343F34CD34CC343D34D73423343C3413
:10206200123483343A34B734D1343834C634273452
:102072003734383486343534C034D6343334CC34FF
:102082002B343234703489343034E734DB342E3438
:10209200E5343C341E344234A2340D3400348034EE
:1020A2003F340034203441340034C83442340034E4
:1020B2007A34443440341C3446345034C3344734C4
:1020C200243474344934973418344B34BC34BE3419
:1020D2004C346B346E344E3403341534503479340A
:1020E200AD346034F33449347134543465346D346E
:1020F20070346534723461347434753472346134DA
:0C2102003D342034253466340A340034A7
:102EBE00F000700823009A000800640080010131C0
:102ECE00890B652F003423009E186F2F01300800E8
:102EDE00003008009731E12797318C31CC248031B6
:102EEE000228720871047004031908008030F2067B
:102EFE00080023009E019D011E121E159F151D1018
:102F0E0019309B0020009112111223009D179E165E
:102F1E001D1621000E138E170800F10097316A2737
:102F2E0097310038031D952F71088600870101081F
:102F3E0097315F279731710886008701F10A810862
:102F4E0003190800952F80302000DD065E08CE00A4
:102F5E005F08CF006008D0005B08D1005C08D2008B
:102F6E005D08D3008D319F2520004E08DB004F08F1
:102F7E00DC005008DD000800FC01FD012000241CCF
:102F8E00CC2F2608FC072708FD3D0130A635A70DDE
:102F9E00890BCD2F0130A536A40C890BD22F250815
:102FAE002404031DC52F7D08A501A5077C08A401D7
:102FBE00A407080021001908873958389900230002
:102FCE000C1421000C1423008C1421008C142000EE
:102FDE008C0121001D109D109E171E088F39603820
:102FEE009E001E11FC309E059B019C01973180278F
:022FFE000800C9
:020000040001F9
:04000E00A4C9FFDCA6
:00000001FF
