:08000000803102288731FA2F3C
:100F84008731C92787318731D92780310228230047
:100F94008D0121008D0120008D0123000C108C1087
:100FA4000C11073021008C0020008C010800200067
:100FB4000C1C8C18DF2F0C1DF82FF001F00AF10126
:100FC400F10A0C0870020318F52F7135F20072084B
:100FD400F10071080138F2007208F1000130F200EA
:100FE4007208F007E32F71088D00D92F8D01D92FD6
:0C0FF400F001F1017E1020008731C22FB7
:020000040001F9
:04000E00A4C9FFDCA6
:00000001FF
