:08000000803102288731F52F41
:10089800640080010131890B4D2C003484315924C6
:1008A800843185313C258031022885317B2584318E
:1008B80001308631952684310C3086319526230007
:1008C8008C01013021008C0020008C01080079087F
:1008D80078040319922CFD01FD0AF91B7D2C0130C7
:1008E800F835F90D890B742C0130FC007C08FD07E4
:1008F800712C79087B02031D832C78087A02031C6B
:10090800892C7808FA027908FB3B0130F936F80C93
:10091800890B8A2C0130FD02031D7D2C7B08F9010F
:10092800F9077A08F801F8070800F600AA2C7308F6
:10093800803EA62C7308C03EA62C7308943EA62CB5
:100948007308D43EF5007508F700B82C7608013A0C
:1009580003199B2C033A03199E2C013A0319A12C65
:10096800073A0319A42CB82C7708863195268431C8
:100978007408860087018108031908007408860036
:10098800870101088631072684310130F500750892
:10099800F407BC2CF501F601710870040319FD2C4D
:1009A800F701F70AF11BE22C0130F035F10D890B44
:1009B800D92C0130F4007408F707D62C0130F5352E
:1009C800F60D890BE32C71087302031DED2C7008DA
:1009D8007202031CF42C7008F2027108F33B7514C0
:1009E8000130F136F00C890BF52C0130F702031DAC
:1009F800E22C7608F101F1077508F001F00708000C
:100A0800F700152D7308803E112D7308C03E112D77
:100A18007308943E112D7308D43EF6007608F8004A
:100A2800232D7708013A0319062D033A0319092DD6
:100A3800013A03190C2D073A03190F2D232D7808B5
:100A4800863195268531740884007508850000086C
:100A58000038031908007408840075088500000828
:100A68008631072685310130F4070030F53D272D02
:100A7800F301F30A0A30F4008830F50001308531BB
:100A88000425853104302000D1005108F3002630B8
:100A9800F4008830F50002308531042585312000C6
:100AA8000C1C532D0C18562D0130A0070030A13D09
:100AB80001308631952685311A302000C0008830F3
:100AC800C1002108C301C3072008C201C2072230A0
:100AD800873123278531F301F30A22302000D10022
:100AE8005108F4000130843199248531532D2300B5
:100AF8008D0121008D130D138D120D120D118D1006
:100B080020008D130D138D120D120D118D10E43070
:100B1800F300F30B8D2D0032E430F300F30B922D2C
:100B28000032E430F300F30B972D0032E430F30089
:100B3800F30B9C2D0032E430F300F30BA12D0032AF
:100B4800E430F300F30BA62D0032F401F40A04306C
:100B580074020318D02D20008D130D138D160D1659
:100B68000D118D108D130D138D160D160D158D107D
:100B780020008D130D138D160D160D118D10E430F8
:100B8800F300F30BC52D00320130F3007308F407AE
:100B980004307402031CAF2D20008D130D138D1625
:100BA8000D120D118D108D130D138D160D120D15BF
:100BB8008D1020008D130D138D160D120D118D1033
:100BC800E430F300F30BE62D00322830F30073080D
:100BD800F40074088631952685311030F3007308C7
:100BE800F4007408863195268531F401F40A7408F6
:100BF8008631952685310F30F3007308F4007408A8
:100C0800863195260800F20020000D118D14720817
:100C1800F0000730F036890B0E2E70080139F1000C
:100C2800F10CF10C0D0871067F3971068D00720800
:100C3800F0000630F036890B1E2E70080139F100DD
:100C4800F10EF10DF10D0D087106BF3971068D0019
:100C58007208F0000530F036890B2F2E7008013924
:100C6800F100F10EF10D0D087106DF3971068D00E6
:100C78007208F0000430F036890B3F2E70080139F5
:100C8800F100F10E0D087106EF3971068D00033081
:100C9800F000F00B4D2E20000D1520000D117208EC
:100CA800F0000330F036890B562E70080139F10038
:100CB800F10CF10C0D0871067F3971068D00720870
:100CC800F0000230F036890B662E70080139F10009
:100CD800F10EF10DF10D0D087106BF3971068D0089
:100CE80072360139F000F00EF00D0D087006DF398C
:100CF80070068D0072080139F000F00E0D087006BC
:100D0800EF3970068D000330F000F00B892E2000BB
:100D18000D1520000D11E430F000F00B912E00327B
:100D28000800F20020000D118D107208F000073045
:100D3800F036890B9C2E70080139F100F10CF10C8A
:100D48000D0871067F3971068D007208F0000630B3
:100D5800F036890BAC2E70080139F100F10EF10D57
:100D6800F10D0D087106BF3971068D007208F0008B
:100D78000530F036890BBD2E70080139F100F10EEF
:100D8800F10D0D087106DF3971068D007208F0004B
:100D98000430F036890BCD2E70080139F100F10EC0
:100DA8000D087106EF3971068D000330F000F00B65
:100DB800DB2E20000D1520000D117208F000033005
:100DC800F036890BE42E70080139F100F10CF10CB2
:100DD8000D0871067F3971068D007208F000023027
:100DE800F036890BF42E70080139F100F10EF10D7F
:100DF800F10D0D087106BF3971068D007236013983
:100E0800F000F00EF00D0D087006DF3970068D0049
:100E180072080139F000F00E0D087006EF397006FF
:100E28008D000330F000F00B172F20000D15200067
:100E38000D11E430F000F00B1F2F003208002000E5
:100E4800CF004230C4004408C8004108C50040082B
:100E5800C400C00A0319C10A440884004508850073
:100E68000008C6004608D000D0080319F02F500823
:100E7800253A03194B2F5008C4004F0886008701F4
:100E8800440881000130C4004408CF07292FC90154
:100E98004108C5004008C400C00A0319C10A440833
:100EA8008400450885000008D000003A0319F02F97
:100EB800643A0319632F0D3A0319632F292F480841
:100EC80086008701403FCB00413FCC000230C40080
:100ED8004408C807CC1F792F0330C4004408C9044C
:100EE800CB09CC09CB0A0319CC0AD001D00A500887
:100EF800053A03199E2F5008C400C501C435C50D15
:100F08000030440784008830453D8500003FC60016
:100F1800013FC70047084C02031D942F46084B02A7
:100F2800031C9E2F0130C4004408D0075008053A1E
:100F3800031D7F2F490803390319AD2F2D30C40035
:100F48004F0886008701440881000130C400440826
:100F5800CF075008C4004408CA00FF30C400440842
:100F6800CA074A08FF3A0319292F0A30F800003047
:100F7800F9004A08C400C501C435C50D003044074E
:100F880084008830453D8500003FF000013FF100B6
:100F98004C08F301F3074B08F201F2078431CE2421
:100FA80087317108FB01FB077008FA01FA078431E1
:100FB8006B2487317808303E2000C6004608D000F0
:100FC8005008C4004F08860087014408810001309A
:100FD800C4004408CF07B12F4F088600870181015C
:100FE80008002030840000308500203084314C24F3
:100FF8007E1020008431522C013400340A3400342D
:1010080064340034E83403341034273449346E34FB
:1010180069346334693461346E3464346F34203431
:10102800703475346C3473346134003443346F3441
:101038006E347434613464346F3472343D3425341E
:10104800643400343C3442344F3454344F344E34D6
:041058003E340034EE
:020000040001F9
:04000E00A4C9FFDCA6
:00000001FF
