:08000000803102288731F52F41
:1008BA00F000700823009A000800640080010131EA
:1008CA00890B632C003423009E186D2C013008001C
:1008DA00003008008431A0248431873128278031F0
:1008EA00022823009E019D011E121E159F151D1030
:1008FA0019309B0020009112111223009D179E1699
:10090A001D1621000E138E170800F1008431682489
:10091A0084310038031D8B2C710886008701010879
:10092A0084315D248431710886008701F10A8108C7
:10093A00031908008B2C21001908873958389900A7
:10094A0023000C1421000C1423008C1421008C1495
:10095A0020008C0121001D109D109E171E088F3942
:10096A0060389E001E11FC309E059B019C0184315B
:10097A0076240800FD01F91FC92CF809F909F80ABB
:10098A000319F90AFD01FD0A7808F0007908F10057
:10099A00F2018E30FB007B08F3007D08FC007C0826
:1009AA00F40085316B257008F8007108F9007208A7
:1009BA00FA000800F901FA0121009B019C01700864
:1009CA00F200F20DF20D1D087206833972069D00BF
:1009DA001D149D140430F3003D30F200F20BF32C89
:1009EA00F30BF32C003221009D18F82C1D101C0863
:1009FA00F200F3017208F9007308FA001B08F2000A
:100A0A00F3017A08F5007908F4007408F500F40196
:100A1A0072087404F70073087504F8007708F9007F
:100A2A007808FA007A08F101F1077908F001F0076D
:100A3A000800FB007230F5007508F9003A2D7908B4
:100A4A00860087010108F5007508FA000230F500F2
:100A5A007508F9077A08F5007B088600870175088A
:100A6A0081000130F5007508FB077108F60070086F
:100A7A00F500F00A0319F10A750884007608850062
:100A8A000008F7007708FA00FA080319662D7A08B1
:100A9A00253A031D2F2DF8017108F6007008F5009C
:100AAA00F00A0319F10A750884007608850000081F
:100ABA00FA00003A0319662D633A0319242D2F2DE3
:100ACA003A2D7B0886008701810108007308031903
:100ADA00732D720871047004031D842D0030F00018
:100AEA000030F1000030F20008000130F50075080E
:100AFA00F3070130F236F10CF00C890B7F2DFE3032
:100B0A00720503199D2D7A2D0130F5007508F3073A
:100B1A000130F007003003180130F10700300318E4
:100B2A000130F2070130F236F10CF00C890B982DE6
:100B3A00FF3072050319AA2D892D0130F302013005
:100B4A00F035F10DF20D890BA52DF11FA22D7318A9
:100B5A00B42DFF30F0057F30F105FF30F2050310A8
:100B6A00F30C7308F500F601F7011030F535F60DB0
:100B7A00F70D890BBB2D7508F0047608F104770888
:100B8A00F204740803190800F21708002000230869
:100B9A00A6002408A7002508A8000310270D280D81
:100BAA00A9002908AE00AE08031DE22D0030A000FE
:100BBA000030A1000030A20008002008A600210889
:100BCA00A7002208A8000310270D280DA90029084C
:100BDA00AF00AF08031DF82D0030A0000030A100BF
:100BEA000030A20008000030AB000030AC0000303A
:100BFA00AD0089302F07A6002608AE022308A600FA
:100C0A002408A7002508A8001030A836A70CA60CAF
:100C1A00890B0A2E2608A9002908AF002008A60079
:100C2A002108A7002208A8001030A836A70CA60C95
:100C3A00890B1A2E2608A9002908AF068030A600BB
:100C4A002608AF05A417FF30A305FF30A40500301E
:100C5A00A505A117FF30A005FF30A1050030A205A8
:100C6A001830A6002608AA000130AB35AC0DAD0D30
:100C7A00890B3A2E22082502031D492E2108240237
:100C8A00031D492E20082302031C522E2008A3020A
:100C9A002108A43B2208A53B2B140130A335A40D3F
:100CAA00A50D890B532E0130AA02031D392E2B08DC
:100CBA00F0002C08F1002D08F2002E08A6002608E4
:100CCA00F3002F08A7002708F40085316B25700868
:100CDA002000A0007108A1007208A20008002000EC
:100CEA003008B6003108B7003208B8000310370DD3
:100CFA00380DB9003908BA00BA08031D8B2E003026
:100D0A00B0000030B1000030B20008003308B6006D
:100D1A003408B7003508B8000310370D380DB9008C
:100D2A003908BF00BF08031DA12E0030B0000030F3
:100D3A00B1000030B20008003F087B3EB60036081A
:100D4A00BA073008B6003108B7003208B8001030C8
:100D5A00B836B70CB60C890BAD2E3608B90039086F
:100D6A00BF003308B6003408B7003508B8001030A1
:100D7A00B836B70CB60C890BBD2E3608B90039083F
:100D8A00BF068030B6003608BF05B117B417FF306A
:100D9A00B305FF30B4050030B5050030BB000030A4
:100DAA00BC000030BD000730B6003608BE00301C5B
:100DBA00E42E3308BB073408BC3D3508BD3D01307D
:100DCA00B236B10CB00C890BE52E0130B335B40D37
:100DDA00B50D890BEB2E0130BE02031DDC2E093046
:100DEA00B6003608BE00301C002F3308BB07340893
:100DFA00BC3D3508BD3D0130B236B10CB00C890B93
:100E0A00012F0130BD36BC0CBB0C890B072F0130FA
:100E1A00BE02031DF82E3B08F0003C08F1003D0815
:100E2A00F2003A08B6003608F3003F08B700370860
:100E3A00F40085316B2570082000B0007108B100FC
:100E4A007208B20008002000C801C901CA01CB011A
:100E5A000030C5000030C6000030C7002000450839
:100E6A00C2004608C3004708C4000030F000003042
:100E7A00F1008431DF24873171082000C901C907D4
:100E8A007008C801C8070130F0000030F100843151
:100E9A00DF24873171082000CB01CB077008CA0113
:100EAA00CA074B08803AC0004908803A4002031D2D
:100EBA00602F48084A0203188A2F9A302000A0009F
:100ECA001930A1004030A2004A09C0004B09C100F4
:100EDA00C00A0319C10A48084007F8004908413DF9
:100EEA00F9008431BF24873178082000A3007908EB
:100EFA00A4007A08A5008531CB2587312000200877
:100F0A00C5002108C6002208CE2F20004908803AD1
:100F1A00C0004B08803A4002031D952F4A08480238
:100F2A000318CF2F00302000B0008030B100BF304E
:100F3A00B2009A30A0001930A1004030A20048093E
:100F4A00C0004909C100C00A0319C10A4A0840077A
:100F5A00F8004B08413DF9008431BF2487317808F5
:100F6A002000A3007908A4007A08A5008531CB25C2
:100F7A00873120002008B3002108B4002208B500F8
:100F8A0086317426873120003008C5003108C60032
:100F9A003208C700200047084406031DDA2F460816
:100FAA004306031DDA2F450842060319332F003082
:100FBA00F0008830F1004508F2004608F3004708BF
:100FCA00F4004C3085311E258731843168248731FD
:100FDA000038031DEA2F4C3084318A248731332F9D
:100FEA004C308400003085001430843162247E1035
:100FFA00200084316F2C543465346D347034653478
:10100A007234613474347534723461343D3420344A
:08101A00253463340A3400346C
:020000040001F9
:04000E00A4C9FFDCA6
:00000001FF
