:08000000803102288731FB2F3B
:100F7A008731C42787318731CD2780310228230062
:100F8A008D0121008D010330F0007008F200080085
:100F9A00720820008D007208F0000130F035FF3E23
:100FAA00031DD32F7035F1007108F200720803385F
:100FBA00F0007008F2007230F100A130F000F00B7E
:100FCA00E42FF10BE42F003220008D1FCD2F8D016D
:100FDA007230F100A130F000F00BF12FF10BF12F7C
:100FEA0000320330F0007008F200CD2FF3017E10BA
:060FFA0020008731BD2F2D
:020000040001F9
:04000E00A4C9FFDCA6
:00000001FF
