:08000000803102288731FC2F3A
:100EF2008731802787318731932780310228230069
:100F02008D0121008D0120000D100D118D11230086
:100F12000C108C100C118C110F3021008C00200051
:100F22008C0108009D2F8C1C0C19A02F8C19A02F4E
:100F32009D2F013020008D0020000C1C942F0330C7
:100F4200F0000030F1000C08F700F8017708F20019
:100F52007808F3008731B5278731710870040319C7
:100F62009A2F20008D019D2FF601F31FBF2FF2094A
:100F7200F309F20A0319F30AF601F60AF11FC62F62
:100F8200F009F109F00A0319F10A71087004031952
:100F9200ED2FF501F50AF11BD82F0130F035F10DD7
:100FA200890BCF2F0130F4007408F507CC2F71089C
:100FB2007302031DDE2F70087202031CE42F7008F7
:100FC200F2027108F33B0130F136F00C890BE52F88
:100FD2000130F502031DD82F76080319F52FF20907
:100FE200F309F20A0319F30A7308F101F10772080F
:0E0FF200F001F00708007E1020008731792FF3
:020000040001F9
:04000E00A4C9FFDCA6
:00000001FF
