:10000000803102288731F52FFD01F91F0E28F809EC
:10001000F909F80A0319F90AFD01FD0A7808F00048
:100020007908F100F2018E30FB007B08F3007D08B7
:10003000FC007C08F4009731A0277008F8007108D4
:10004000F9007208FA000800703086008701403F0E
:10005000F600413FF700423FF800433FF90003102C
:10006000780D790DFA007A082000A500A508031D77
:1000700042280030F3000030F2000030F100003080
:10008000F0000800733086008701403FF600413FD2
:10009000F700423FF800433FF9000310780D790D57
:1000A000FA007A08A400A408031D5F280030F300BA
:1000B0000030F2000030F1000030F0000800703035
:1000C00086008701003081044131003081044131D4
:1000D0008030810441310030810470308600870116
:1000E000FF3081054131FF3081054131FF3081050D
:1000F0004131003081057330860087010030810472
:10010000413100308104413180308104413100307F
:100110008104733086008701FF3081054131FF3053
:1001200081054131FF3081054131003081050030CA
:10013000A3000030A2000030A1000030A0007F30FA
:10014000A502A0302407F6007608A5022030F600AC
:100150007608A4000130A035A10DA20DA30D890BD6
:10016000AB28733086008701403FF600413FF7001F
:10017000423FF800433FF900703086008701403F5E
:10018000FA00413FFB00423FFC00433FFD0079087D
:100190007D02031DD52878087C02031DD528770829
:1001A0007B02031DD52876087A02031CF2287330DF
:1001B00086008701403FF600413FF700423FF800CC
:1001C000433FF90070308600870176088102413193
:1001D0007708813B41317808813B41317908813B87
:1001E0007D31201470308600870181354131810DC9
:1001F0004131810D4131810D7D310130A402031D5A
:10020000AA28A51F1F292508803A9F3E03181129F7
:100210000030F3000030F2000030F1000030F00058
:1002200008000130A336A20CA10CA00C890B1229E6
:100230000130F6007608A507031938291129203066
:100240002502031C35290030F3000030F200003095
:10025000F1000030F00008000130A035A10DA20D22
:10026000A30D890B2D290130A502A508031D2C29FA
:100270002308F3002208F2002108F1002008F00012
:1002800008002000C800C81F6C2AC809C80A48080E
:10029000803A123E031CEE290A30F7000030F800C5
:1002A0004808F200F301F21BF3036430F000003061
:1002B000F1009731052781317108FA01FA077008BA
:1002C000F901F90797314C2781317708093E200061
:1002D000A4000030783DA5000330A6000030A70040
:1002E0009531A72581312000250885002408840048
:1002F000283084079030853D003FB000013FB100B9
:10030000023FB2006430F7000030F8004808F900FE
:10031000FA01F91BFA0397314C2781317708123E15
:100320002000A4000030783DA5000330A600003076
:10033000A7009531A72581312000250885002408D4
:100340008400283084079030853D003FB300013F92
:10035000B400023FB5008B313B23813120003008CF
:10036000C5003108C6003208C7004808F200F30192
:10037000F21BF3030A30F0000030F100973105273B
:10038000813171082000A501A5077008A401A40708
:100390000330A6000030A7009531A7258131200049
:1003A0002508850024088400283084079030853D86
:1003B000003FB000013FB100023FB2004508B3006A
:1003C0004608B4004708B5008B313B2320003008B5
:1003D000C0003108C1003208C20008004808803A55
:1003E000753E031C4F2A4808F200F301F21BF30389
:1003F0000A30F0000030F100973105278131710893
:100400002000A501A5077008A401A4070330A600D9
:100410000030A7009531A7258131200025088500EF
:1004200024088400283084079030853D003FB000C8
:10043000013FB100023FB2000A30F7000030F8007F
:100440004808F900FA01F91BFA0397314C2781316A
:100450007708093E2000A4000030783DA500033055
:10046000A6000030A7009531A7258131200025087E
:10047000850024088400283084079030853D003FA3
:10048000B300013FB400023FB5008B313B23200095
:100490003008C0003108C1003208C2000800480816
:1004A000C300C4014308A4004408A5000330A6000B
:1004B0000030A7009531A7252000250885002408D5
:1004C0008400283084079030853D003FC000013F04
:1004D000C100023FC20008004808803A123E031CD7
:1004E000132B0A30F7000030F8004808F200F3013F
:1004F000F21BF3036430F0000030F1009731052760
:1005000081317108FA01FA077008F901F90797318A
:100510004C2781317708093E2000A4000030783D47
:10052000A5000330A6000030A7009531A725813132
:10053000200025088500240884004F30840790306F
:10054000853D003FB000013FB100023FB200643082
:10055000F7000030F8004808F900FA01F91BFA0327
:1005600097314C2781317708123E2000A4000030DB
:10057000783DA5000330A6000030A7009531A725DF
:100580008131200025088500240884004F3084072D
:100590009030853D003FB300013FB400023FB500FD
:1005A0008B313B23813120003008C5003108C60063
:1005B0003208C7004808F200F301F21BF3030A30C7
:1005C000F0000030F10097310527813171082000DB
:1005D000A501A5077008A401A4070330A6000030F8
:1005E000A7009531A7258131200025088500240822
:1005F00084004F3084079030853D003FB000013FBC
:10060000B100023FB2004508B3004608B4004708F5
:10061000B5008B313B2320003008C0003108C100F9
:100620003208C20008004808803A753E031C742B4B
:100630004808F200F301F21BF3030A30F000003027
:10064000F10097310527813171082000A501A50728
:100650007008A401A4070330A6000030A70095315C
:10066000A7258131200025088500240884004F300B
:1006700084079030853D003FB000013FB100023F4C
:10068000B2000A30F7000030F8004808F900FA011B
:10069000F91BFA0397314C2781317708093E200076
:1006A000A4000030783DA5000330A6000030A7006C
:1006B0009531A72581312000250885002408840074
:1006C0004F3084079030853D003FB300013FB400B8
:1006D000023FB5008B313B2320003008C0003108B9
:1006E000C1003208C20008004808C300C401430822
:1006F000A4004408A5000330A6000030A7009531EF
:10070000A725200025088500240884004F30840791
:100710009030853D003FC000013FC100023FC20054
:1007200008002100BD0063302000E60066082100BB
:10073000A70020006208E7006108E600E10A03194B
:10074000E20A66088400670885000008E800680877
:100750002100C100C1080319F02F4108253A0319EF
:10076000B42B41082000E22FB001B101B92B3115A3
:10077000CF2B20006208E7006108E600E10A0319B8
:10078000E20A660884006708850000082100C100AD
:10079000003A0319F02F663A0319B72B992B003052
:1007A00030052000E6000730210031052000E70079
:1007B000670866040319D32F06302100B200003009
:1007C000B300270886008701403FBE00413FBF00BD
:1007D000423FC00003302000E60066082100A70762
:1007E0003E08F0003F08F1004008F2000030F3003E
:1007F0000030F4000030F5009631492683310318AB
:10080000162C21003E08F0003F08F1004008F200DD
:1008100095318625833170082100BE007108BF0024
:100820007208C0000330B0040030B1042100BB01E5
:10083000BC0140083F043E040319DE2CBE30860094
:100840008701403F2000E600413FE700423FE800CB
:10085000433FE9000F30E936E80CE70CE60C890B62
:100860002B2CFF306605EA0000306705EB006A08B4
:10087000823E2100BB00FF3020006B3D2100BC0008
:10088000FF30BB07FF30BC3D03302000A400003028
:10089000A50021003C082000A701A70721003B0874
:1008A0002000A601A6079531A72583312000250841
:1008B0002100BC01BC07200024082100BB01BB07AC
:1008C0000A30F7000030F8003C08FA01FA073B084C
:1008D000F901F90797314C27833178082100BC01D1
:1008E000BC077708BB01BB07BC1F7A2CFF30BB07D6
:1008F000FF30BC3D3B03FF3A813141218331200071
:1009000040082100B800200041082100B900200063
:1009100042082100BA003E082000B00021003F0834
:100920002000B100210040082000B200210038085A
:100930002000B300210039082000B40021003A084B
:100940002000B5008B313B2383312000300821008B
:10095000B800200031082100B90020003208210031
:10096000BA003808F0003908F1003A08F200003007
:10097000F3008030F4003F30F50096314926833192
:100980000318C72CFF302100BB07FF30DD2C2100EE
:100990003808F0003908F1003A08F2000030F3009E
:1009A0002030F4004130F500963149268331031C94
:1009B000DE2C01302100BB070030BC3D2100330894
:1009C000803A2000E60080306602031DEA2C0D30DC
:1009D000210032020318132D210032088E31952692
:1009E000833120004008CE004108CF004208D000EB
:1009F00021003E082000D10021003F082000D20045
:100A0000210040082000D3008C31A5248331200030
:100A10004E082100BE0020004F082100BF0020002A
:100A200050082100C00021003C08803A2000E60068
:100A300080306602031D1F2D0A3021003B0203187F
:100A40004A2D210040083F043E0403199A2D3E0818
:100A50002000C90021003F082000CA0021004008F2
:100A60002000CB0088315220833120004C084B04F9
:100A70004A044904031D9A2D21003C08803A2000B5
:100A8000E60080306602031D482D023021003B0243
:100A9000031C9A2D21003808F0003908F1003A08AB
:100AA000F2007030F3008930F4004030F5009631E8
:100AB0004926833103185E2DF7305F2DF830210071
:100AC000BB07FF30BC3D3B08813141218331200011
:100AD00040082100B800200041082100B900200092
:100AE00042082100BA003E08F0003F08F10040082B
:100AF000F2003808F3003908F4003A08F5008B31A9
:100B0000EF23833173082100A6007208A500710845
:100B1000A4007008A3002608B7002508B600240822
:100B2000B5002308B4000030BE000030BF00003024
:100B3000C000E82D21003E082000C90021003F0828
:100B40002000CA00210040082000CB00883152203C
:100B5000833120004C082100B70020004B08210001
:100B6000B60020004A082100B500200049082100F5
:100B7000B4003708FB003608FA003508F9003408DD
:100B8000F8009531EC25833178082000DB007908E6
:100B9000DC007A08DD0021003E082000DE00210094
:100BA0003F082000DF00210040082000E0009531D0
:100BB0008E25833120005B082100BE0020005C08E8
:100BC0002100BF0020005D082100C000BB01BC0166
:100BD000C101C10A41080A3A0319252E4108200023
:100BE000E600E701E635E70DE635E70D003066077C
:100BF00084009030673D8500003FE800013FE90038
:100C0000023FEA00033FEB006B0821003702031D9F
:100C1000192E20006A0821003602031D192E20001B
:100C2000690821003502031D192E200068082100E3
:100C30003402031C252E01302000E6006608210046
:100C4000C10741080A3A031DEE2D0330300520008C
:100C5000E6000030210031052000E7006708660447
:100C60000319402E2D30E60021003D088600870143
:100C70002000660881000130E60066082100BD07FB
:100C8000FF302000E60066082100C1074108FF3A56
:100C90000319A82E41082000E600E701E635E70D1C
:100CA000E635E70D0030660784009030673D85002B
:100CB000003FF000013FF100023FF200033FF3006C
:100CC00021003708F7003608F6003508F50034082B
:100CD000F40088310020833173082100AB007208D2
:100CE000AA007108A9007008A8000030F3000030C5
:100CF000F2000030F1000A30F0002B08F7002A085B
:100D0000F6002908F5002808F4009631C32683313F
:100D100073082100AB007208AA007108A9007008CE
:100D2000A8002808303E2000332E30302000E60096
:100D300021003D08860087012000660881000130FF
:100D4000E60066082100BD07FF30BB07FF30BC3D51
:100D50003C08803A2000E60080306602031DB32E76
:100D6000013021003B020318952E21003308803A00
:100D70002000E60080306602031DC12E09302100EC
:100D80003202031CC52E0830C72E21003208200075
:100D9000E60066082100C10041082000E600E701E6
:100DA000E61BE70366082100B20220006708210065
:100DB000B33B41080319EB2E2E302000E600210042
:100DC0003D08860087012000660881000130E600AA
:100DD00066082100BD07410881314121833120008F
:100DE00040082100A000200041082100A1002000AF
:100DF00042082100A20020082000B30021002108A1
:100E00002000B400210022082000B50021003E0887
:100E10002000B00021003F082000B1002100400860
:100E20002000B2008B313B23833120003008C90001
:100E30003108CA003208CB008831522083312000AB
:100E40004C082100B70020004B082100B60020000C
:100E50004A082100B500200049082100B400FF30F5
:100E60002000E60066082100C1074108FF3A031987
:100E7000CE2F41082000E600E701E635E70DE63514
:100E8000E70D0030660784009030673D8500003F25
:100E9000F000013FF100023FF200033FF3002100A8
:100EA0003708F7003608F6003508F5003408F40076
:100EB00088310020833173082100AF007208AE0032
:100EC0007108AD007008AC000030F3000030F20093
:100ED0000030F1000A30F0002F08F7002E08F6006D
:100EE0002D08F5002C08F4009631C32683317308D1
:100EF0002100AF007208AE007108AD007008AC00B0
:100F00002C08303E2000E60021003D0886008701C5
:100F10002000660881000130E60066082100BD0758
:100F200041082000E600E701E635E70DE635E70D6C
:100F30000030660784009030673D8500003FF00078
:100F4000013FF100023FF200033FF30021003708A8
:100F5000F7003608F6003508F5003408F40096313D
:100F6000C326833173082100B7007208B6007108E8
:100F7000B50070082E2F30302000E60021003D081B
:100F8000860087012000660881000130E6006608BF
:100F90002100BD07FF30B207FF30B33D33083204F4
:100FA0000319992BBB2F0330210030052000E600E8
:100FB0000030210031052000E700670866040319AE
:100FC000992B2D30E60021003D0886008701200086
:100FD000660881000130E60066082100BD07992BF4
:100FE0003D088600870181010800CC308400003074
:100FF00085001E30953179257E10200095317F2D9A
:101000000030FC000030FB000030FA000030F90036
:10101000730872047104700403194928FD01FD0A64
:10102000F31B1E280130F035F10DF20DF30D890B85
:1010300013280130F8007808FD0710280130F93531
:10104000FA0DFB0DFC0D890B1F2873087702031D99
:10105000332872087602031D332871087502031DB8
:10106000332870087402031C3E287008F4027108CB
:10107000F53B7208F63B7308F73B79140130F33601
:10108000F20CF10CF00C890B3F280130FD02031D1E
:101090001E287C08F3007B08F2007A08F10079082A
:1010A000F000080020004908CD004A08CE004B0897
:1010B000CF0003104E0D4F0DD0005008D600D608BB
:1010C000031D6B280030CC000030CB000030CA007C
:1010D0000030C90008004908CD004A08CE004B087E
:1010E000CF001730CF36CE0CCD0C890B72284D08AF
:1010F000D0005008D100CA17FF30C905FF30CA051B
:101100000030CB054908D2004A08D3004B08D40070
:10111000D5018E30D602D61FA9285608803A8F3EB8
:1011200003189B280030CC000030CB000030CA00F0
:101130000030C90008000130D536D40CD30CD20CD5
:10114000890B9C280130CD004D08D6070319C22811
:101150009B2818305602031CBF280030CC000030FA
:10116000CB000030CA000030C90008000130D23581
:10117000D30DD40DD50D890BB7280130D602D60872
:10118000031DB62851080319D028D209D309D40960
:10119000D509D20A0319D30A0319D40A0319D50AA7
:1011A0005508CC005408CB005308CA005208C900A7
:1011B0000800F20020000D118D107208F0000730B9
:1011C000F036890BE02870080139F100F10CF10CC0
:1011D0000D0871067F3971068D007208F000063027
:1011E000F036890BF02870080139F100F10EF10D8D
:1011F000F10D0D087106BF3971068D007208F000FF
:101200000530F036890B012970080139F100F10E23
:10121000F10D0D087106DF3971068D007208F000BE
:101220000430F036890B112970080139F100F10EF4
:101230000D087106EF3971068D000330F000F00BD8
:101240001F2920000D15000020000D117208F0006C
:101250000330F036890B292970080139F100F10CAF
:10126000F10C0D0871067F3971068D007208F000CF
:101270000230F036890B392970080139F100F10E7E
:10128000F10DF10D0D087106BF3971068D00723632
:101290000139F000F00EF00D0D087006DF39700610
:1012A0008D0072080139F000F00E0D087006EF395C
:1012B00070068D000330F000F00B5C2920000D1546
:1012C000000020000D11E530F00000320000F00BAE
:1012D00065290800F20020000D118D147208F0003D
:1012E0000730F036890B712970080139F100F10CD3
:1012F000F10C0D0871067F3971068D007208F0003F
:101300000630F036890B812970080139F100F10EA1
:10131000F10DF10D0D087106BF3971068D007208CF
:10132000F0000530F036890B922970080139F10080
:10133000F10EF10D0D087106DF3971068D0072088E
:10134000F0000430F036890BA22970080139F10051
:10135000F10E0D087106EF3971068D000330F000B3
:10136000F00BB02920000D15000020000D117208AF
:10137000F0000330F036890BBA2970080139F1000A
:10138000F10CF10C0D0871067F3971068D007208A1
:10139000F0000230F036890BCA2970080139F100DB
:1013A000F10EF10DF10D0D087106BF3971068D00BA
:1013B00072360139F000F00EF00D0D087006DF39BD
:1013C00070068D0072080139F000F00E0D087006ED
:1013D000EF3970068D000330F000F00BED2920008E
:1013E0000D15000020000D110000E530F000003266
:1013F0000000F00BF729080023008D0121008D1358
:101400000D138D120D120D118D1020008D130D1363
:101410008D120D120D118D10E530F3000032000019
:10142000F30B0E2AE530F30000320000F30B142A10
:10143000E530F30000320000F30B1A2AE530F30028
:1014400000320000F30B202AE530F30000320000E8
:10145000F30B262AE530F30000320000F30B2C2AB0
:10146000F401F40A043074020318592A20008D1381
:101470000D138D160D160D118D108D130D138D1668
:101480000D160D158D10000020008D130D138D16F7
:101490000D160D118D10E530F30000320000F30B36
:1014A0004D2A0130F3007308F40704307402031C62
:1014B000362A20008D130D138D160D120D118D106F
:1014C0008D130D138D160D120D158D1000002000BB
:1014D0008D130D138D160D120D118D10E530F300C7
:1014E00000320000F30B702A2830F3007308F40078
:1014F00074088831D92089311030F3007308F40062
:1015000074088831D9208931F401F40A74088831CB
:10151000D92089310F30F3007308F4007408883142
:10152000D920080020002308A6002408A7002508C9
:10153000A8000310270D280DA9002908AE00AE0849
:10154000031DA92A0030A0000030A1000030A20035
:1015500008002008A6002108A7002208A800031000
:10156000270D280DA9002908AF00AF08031DBF2AC9
:101570000030A0000030A1000030A20008000030C0
:10158000AB000030AC000030AD0089302F07A60062
:101590002608AE022308A6002408A7002508A800F4
:1015A0001030A836A70CA60C890BD12A2608A90052
:1015B0002908AF002008A6002108A7002208A800DB
:1015C0001030A836A70CA60C890BE12A2608A90022
:1015D0002908AF068030A6002608AF05A417FF3003
:1015E000A305FF30A4050030A505A117FF30A00515
:1015F000FF30A1050030A2051830A6002608AA0079
:101600000130AB35AC0DAD0D890B012B2208250245
:10161000031D102B21082402031D102B2008230278
:10162000031C192B2008A3022108A43B2208A53B78
:101630002B140130A335A40DA50D890B1A2B0130F5
:10164000AA02031D002B2B08F0002C08F1002D0826
:10165000F2002E08A6002608F3002F08A70027088E
:10166000F4009731A02770082000A0007108A100A5
:101670007208A200080020003008B6003108B70048
:101680003208B8000310370D380DB9003908BA0018
:10169000BA08031D522B0030B0000030B1000030FA
:1016A000B20008003308B6003408B7003508B800A7
:1016B0000310370D380DB9003908BF00BF08031DEE
:1016C000682B0030B0000030B1000030B2000800DC
:1016D0003F087B3EB6003608BA073008B60031082E
:1016E000B7003208B8001030B836B70CB60C890B0A
:1016F000742B3608B9003908BF003308B600340827
:10170000B7003508B8001030B836B70CB60C890BE6
:10171000842B3608B9003908BF068030B600360879
:10172000BF05B117B417FF30B305FF30B405003063
:10173000B5050030BB000030BC000030BD000730F4
:10174000B6003608BE00301CAB2B3308BB0734088C
:10175000BC3D3508BD3D0130B236B10CB00C890B33
:10176000AC2B0130B335B40DB50D890BB22B013064
:10177000BE02031DA32B0930B6003608BE00301C84
:10178000C72B3308BB073408BC3D3508BD3D0130CD
:10179000B236B10CB00C890BC82B0130BD36BC0C75
:1017A000BB0C890BCE2B0130BE02031DBF2B3B08A7
:1017B000F0003C08F1003D08F2003A08B600360897
:1017C000F3003F08B7003708F4009731A0277008EE
:1017D0002000B0007108B1007208B2000800700863
:1017E000F6007108F7007208F8000310770D780D05
:1017F000F90079082000A500A508031D082C003079
:10180000F3000030F2000030F1000030F00008007A
:101810007308F6007408F7007508F8000310770DD8
:10182000780DF9007908A400A408031D202C0030CD
:10183000F3000030F2000030F1000030F00008004A
:10184000F117FF30F005FF30F1050030F205F41715
:10185000FF30F305FF30F4050030F5050030A3003C
:101860000030A2000030A1000030A0007F30A502AF
:1018700098302407F6007608A5021830F60076089E
:10188000A4000130A035A10DA20DA30D890B422C9F
:1018900075087202031D522C74087102031D522C2C
:1018A00073087002031C5B2C7308F0027408F13B90
:1018B0007508F23B20140130F035F10DF20D890B63
:1018C0005C2C0130A402031D412CA51F832C25088C
:1018D000803A973E0318752C0030F3000030F20078
:1018E0000030F1000030F00008000130A336A20CF7
:1018F000A10CA00C890B762C0130F6007608A50708
:1019000003199C2C752C18302502031C992C0030CF
:10191000F3000030F2000030F1000030F000080069
:101920000130A035A10DA20DA30D890B912C013022
:10193000A502A508031D902C2308F3002208F2003D
:101940002108F1002008F000080020004E08D40013
:101950004F08D5005008D6000310550D560DD7007E
:101960005708DA005108D4005208D5005308D600B1
:101970000310550D560DD7005708D9005A08031902
:10198000CD2C59085A020318D42C5A03FF3A590790
:10199000D40019305402031CD42C5108CE00520834
:1019A000CF005308D00008005908031908005A084E
:1019B00059020318E32C5903FF3A5A07D40019308F
:1019C0005402031808000630D4005408D800D01B75
:1019D000D817D31B5817CF17FF30CE05FF30CF05D0
:1019E0000030D005D217FF30D105FF30D2050030CE
:1019F000D30559085A0203181F2D0130D135D20DD5
:101A0000D30D890BFE2C0130D90259085A0603194F
:101A10001A2D0130D8025808073903191A2DFD2C48
:101A20000130D036CF0CCE0C890B112D0130D400F3
:101A30005408DA075A0859060319442D102D5A087C
:101A400059020318442D0130CE35CF0DD00D890B2E
:101A5000242D0130DA0259085A060319402D0130AD
:101A6000D802580807390319402D232D0130D336E9
:101A7000D20CD10C890B372D0130D4005408D90772
:101A80005A085906031D362DD81F562DFF30CE0695
:101A9000FF30CF06FF30D0060130CE0700300318EC
:101AA0000130CF07003003180130D007581F682DD0
:101AB000FF30D106FF30D206FF30D3060130D10708
:101AC000003003180130D207003003180130D3076B
:101AD000D8014E08D1074F08D23D5008D33DD31F3F
:101AE000832DFF30D106FF30D206FF30D306013000
:101AF000D107003003180130D2070030031801303D
:101B0000D307D801D80A5108F0005208F100530851
:101B1000F2005A08D4005408F3005808D5005508BC
:101B2000F4009731A02770082000CE007108CF0084
:101B30007208D00008002100C801C901CA01CB0108
:101B40000030C5000030C6000030C7002100450845
:101B5000C2004608C3004708C4000030F00000304F
:101B6000F100963184268D3171082100C901C90721
:101B70007008C801C8070130F0000030F10096314C
:101B800084268D3171082100CB01CB077008CA0172
:101B9000CA074B08803A2000EC0021004908803A2F
:101BA00020006C02031DD72D210048084A020318AB
:101BB0000D2E00302000A0000030A1004030A20017
:101BC00021004A092000EC0021004B092000ED0013
:101BD000EC0A0319ED0A2100480820006C07F80000
:101BE0002100490820006D3DF900803104208D312D
:101BF00078082000A3007908A4007A08A5008A319B
:101C000092228D31200020082100C50020002108EB
:101C10002100C60020002208612E21004908803AD8
:101C20002000EC0021004B08803A20006C02031DCC
:101C30001C2E21004A0848020318632E00302000A1
:101C4000B0008030B100BF30B2000030A0000030E2
:101C5000A1004030A200210048092000EC00210032
:101C600049092000ED00EC0A0319ED0A21004A0899
:101C700020006C07F80021004B0820006D3DF900A2
:101C8000803104208D3178082000A3007908A40059
:101C90007A08A5008A3192228D3120002008B300F5
:101CA0002108B4002208B5008B313B238D31200080
:101CB00030082100C500200031082100C6002000A6
:101CC00032082100C700210047084406031D6E2E7C
:101CD00046084306031D6E2E450842060319A62D2D
:101CE00076302000E1009030E2002100450820001D
:101CF000E300210046082000E400210047082000FE
:101D0000E500CC30833191238D3101308831D920E9
:101D10008D31F301F30ACC302000EC006C08F400A4
:101D20000130963114268D31A62D2000CD006E3065
:101D30004D02031C592F0A30F7000030F8004D08FF
:101D4000C300C4014308F2004408F3006430F0000B
:101D50000030F100973105278E317108FA01FA073A
:101D60007008F901F90797314C278E317708093E41
:101D70002000A4000030783DA5000330A60000300C
:101D8000A7009531A7258E3120002508850024085D
:101D90008400283084079030853D003FB000013F2B
:101DA000B100023FB2006430F7000030F8004D0887
:101DB000C500C6014508F9004608FA0097314C27CE
:101DC0008E317708123E2000A4000030783DA50037
:101DD0000330A6000030A7009531A7258E312000E2
:101DE0002508850024088400283084079030853D2C
:101DF000003FB300013FB400023FB5008B313B23ED
:101E00008E3120003008CA003108CB003208CC00E7
:101E10004D08C300C4014308F2004408F3000A302F
:101E2000F0000030F100973105278E317108200055
:101E3000A501A5077008A401A4070330A60000307F
:101E4000A7009531A7258E3120002508850024089C
:101E50008400283084079030853D003FB000013F6A
:101E6000B100023FB2004A08B3004B08B4004C086E
:101E7000B5008B313B238E3120003008C70031087C
:101E8000C8003208C9000030B0000030B1003F3057
:101E9000B2004708B3004808B4004908B5008B31C8
:101EA0003B2320003008C0003108C1003208C200C6
:101EB00008000B304D02031CD32F4D08C300C40192
:101EC0004308F2004408F3000A30F0000030F1004B
:101ED000973105278E3171082000A501A5077008EC
:101EE000A401A4070330A6000030A7009531A72560
:101EF0008E312000250885002408840028308407BE
:101F00009030853D003FB000013FB100023FB2007C
:101F10000A30F7000030F8004D08C500C60145083A
:101F2000F9004608FA0097314C278E317708093EB0
:101F30002000A4000030783DA5000330A60000304A
:101F4000A7009531A7258E3120002508850024089B
:101F50008400283084079030853D003FB300013F66
:101F6000B400023FB5008B313B238E312000300896
:101F7000CA003108CB003208CC000030B00000307D
:101F8000B1003F30B2004A08B3004B08B4004C081F
:101F9000B5008B313B2320003008C0003108C10060
:101FA0003208C20008000030B0000030B1003F30FD
:101FB000B2004D08C300C4014308A4004408A500B2
:101FC0000330A6000030A7009531A7258E312000F0
:101FD0002508850024088400283084079030853D3A
:101FE000003FB300013FB400023FB5008B313B23FB
:101FF00020003008C0003108C1003208C2000800CB
:1020000001340034003400340A3400340034003425
:102010006434003400340034E834033400340034D1
:102020001034273400340034A034863401340034B2
:10203000403442340F3400348034963498340034C1
:102040000034E134F53405340034CA349A343B3476
:10205000003480343F34CD34CC343D34D734233451
:102060003C34123483343A34B734D1343834C6343F
:1020700027343734383486343534C034D6343334A6
:10208000CC342B343234703489343034E734DB349C
:102090002E34E5343C341E344234A2340D34003442
:1020A00080343F340034203441340034C834423466
:1020B00000347A34443440341C3446345034C3340D
:1020C0004734243474344934973418344B34BC3492
:1020D000BE344C346B346E344E34033415345034C7
:1020E0007934AD346034F334493471347434653444
:0E20F0006D34703420343D34253466340034B1
:102AF200640080010131890B7A2D00349531C5259E
:102B020095318D319B258031022872087104700441
:102B1200031908008030F206080080302000DD062C
:102B22005E08CE005F08CF006008D0005B08D100CD
:102B32005C08D2005D08D3008C31A52420004E0829
:102B4200DB004F08DC005008DD000800FC01FD013D
:102B52002000241CB02D2608FC072708FD3D01306B
:102B6200A635A70D890BB12D0130A536A40C890B12
:102B7200B62D25082404031DA92D7D08A501A5074E
:102B82007C08A401A40708002100190887395838D5
:102B9200990023000C1421000C1423008C14210032
:102BA2008C1420008C0121001D109D109E171E0800
:102BB2008F3960389E001E11FC309E059B019C01DE
:102BC2008931FC21953101308831D92095310C3081
:102BD2008831D92008008E30FC007C08FD00FF30CF
:102BE2007B050319002E0130FB36FA0CF90CF80CA8
:102BF200890BF52D0130FC007C08FD07F02D7808CB
:102C0200F0007908F1007A08F2007D08FC007C08E7
:102C1200F300F4019731A0277008F8007108F90059
:102C22007208FA000800F600252E7308803E212E55
:102C32007308C03E212E7308943E212E7308D43EA1
:102C4200F5007508F700332E7608013A0319162E9F
:102C5200033A0319192E013A03191C2E073A0319D4
:102C62001F2E332E77088831D920963174088600BA
:102C7200870181080319080074088600870101088A
:102C820089316A2196310130F5007508F407372E33
:102C9200F21F5F2E7009F6007109F7007209F80041
:102CA200F60A0319F70A0319F80A00307607F0004A
:102CB2000030773DF1008030783DF200F51F752E2F
:102CC2007309F6007409F7007509F800F60A03198A
:102CD200F70A0319F80A00307607F3000030773D4F
:102CE200F4008030783DF5008030F2068030F50641
:102CF20075087202031D080074087102031D0800A2
:102D0200730870020800F901FA0121009B019C017D
:102D12007008F200F20DF20D1D0872068339720678
:102D22009D001D149D140430F3003D30F200F20B9F
:102D3200982EF30B982E003221009D189D2E1D1007
:102D42001C08F200F3017208F9007308FA001B086C
:102D5200F200F3017A08F5007908F4007408F5002E
:102D6200F40172087404F70073087504F800770818
:102D7200F9007808FA007A08F101F1077908F00100
:102D8200F007080073087204710470040319FC2E22
:102D9200F901F90AF31BD92E0130F035F10DF20DCC
:102DA200F30D890BCE2E0130F8007808F907CB2EEF
:102DB20073087702031DE72E72087602031DE72EC1
:102DC20071087502031DE72E70087402031CF12EB0
:102DD2007008F4027108F53B7208F63B7308F73B82
:102DE2000130F336F20CF10CF00C890BF22E0130AB
:102DF200F902031DD92E7708F3007608F200750850
:102E0200F1007408F0000800F601F31F0F2FF20919
:102E1200F309F20A0319F30AF601F60AF11F162F53
:102E2200F009F109F00A0319F10A71087004031993
:102E32003D2FF501F50AF11B282F0130F035F10D78
:102E4200890B1F2F0130F4007408F5071C2F71083D
:102E52007302031D2E2F70087202031C342F700898
:102E6200F2027108F33B0130F136F00C890B352F79
:102E72000130F502031D282F76080319452FF209A8
:102E8200F309F20A0319F30A7308F101F107720850
:102E9200F001F00708002000A101F81F572FF709E1
:102EA200F809F70A0319F80AA101A10AFA1F622F09
:102EB200F909FA09F90A0319FA0A0130FB007B0839
:102EC200A106A201A301780877040319912FA0019A
:102ED200A00AF81B762F0130F735F80D890B6D2FFC
:102EE2000130FB007B08A0076A2F0130A235A30D39
:102EF200890B772F78087A02031D812F77087902D0
:102F0200031C882F7708F9027808FA3B2214013053
:102F1200F836F70C890B892F0130A002031D762F9A
:102F220021080319992FA209A309A20A0319A30AC6
:102F32002308F801F8072208F701F70708007308C9
:102F42000319A82F720871047004031DB92F0030F1
:102F5200F0000030F1000030F20008000130F5000E
:102F62007508F3070130F236F10CF00C890BB42F1F
:102F7200FE3072050319D22FAF2F0130F50075080C
:102F8200F3070130F007003003180130F107003079
:102F920003180130F2070130F236F10CF00C890B04
:102FA200CD2FFF3072050319DF2FBE2F0130F30240
:102FB2000130F035F10DF20D890BDA2FF11FD72F09
:102FC2007318E92FFF30F0057F30F105FF30F2056D
:102FD2000310F30C7308F500F601F7011030F53514
:102FE200F60DF70D890BF02F7508F0047608F10441
:0E2FF2007708F204740803190800F2170800AB
:020000040001F9
:04000E00A4C9FFDCA6
:00000001FF
