:08000000803102288731F02F46
:100E6C00FE0012001E00FE0B372F003487314D2779
:100E7C008731873172278031022803349F3425341F
:100E8C000D349934493441341F3401341934093048
:100E9C00F0007008F30023008D0121008D01730810
:100EAC00203E86008701010820008D0021000C14D3
:100EBC008C140C118C110C128C120C138C1323002F
:100ECC008C0120000C108C100C158C110C128C1237
:100EDC000C138C13F401080020000C1CAF2F7308AA
:100EEC00803A7F3E031CAF2F7308803A763E03187E
:100EFC00AF2F0C118C150C178C130230F200E7304D
:100F0C00F1000030F000F00B892FF10B892FF20B60
:100F1C00892F000020000C150C138C170230F200E6
:100F2C00E730F1000030F000F00B9A2FF10B9A2F04
:100F3C00F20B9A2F000020000C138C138C11FF3035
:100F4C00F0007008F3077308203E86008701010843
:100F5C008D00F308031DB52F0C118C15B72F0C1534
:100F6C008C118C18F31B722F7308803A773E031880
:100F7C00722F0130F0007008F3077308203E8600D2
:100F8C00870101088D000C158C110C178C13023085
:100F9C00F200E730F1000030F000F00BD32FF10B32
:100FAC00D32FF20BD32F000020000C110C138C1735
:100FBC000230F200E730F1000030F000F00BE42FCB
:100FCC00F10BE42FF20BE42F000020000C138C1318
:100FDC008C15722FF401433084008730850020304B
:100FEC008600003087000A30873136277E102000BB
:040FFC0087313C2FCE
:020000040001F9
:04000E00A4C9FFDCA6
:00000001FF
