:08000000803102288731F12F45
:100D22002000110E890C01390800F0007008230020
:100D32009A000800640080010131890B9C2E003466
:100D420023001908F0007008F10071080800230060
:100D52009E18AD2E01300800003008008631C426EE
:100D6200863187314A2780310228F100F0013A307A
:100D720071020318C22E30307102031CC22EF00120
:100D8200F00A700C080021001908873958389900B8
:100D92008631D32621000C138C1323008C012000F2
:100DA2008C01080023009E019D011E121E159F1535
:100DB2001D1019309B0020009112111223009D1763
:100DC2009E161D1621000E138E170800F1008631A3
:100DD200A82686310038031DE82E71088600870197
:100DE2000108863196268631710886008701F10A4C
:100DF200810803190800E82EF401F501701C052F83
:100E02007208F4077308F53D0130F235F30D890BD2
:100E1200062F0130F136F00C890B0B2F710870048C
:100E2200031DFF2E7508F101F1077408F001F007A8
:100E320008002000A601863191268731003A031965
:100E42001C2F8631A12687312000A4002408A5008A
:100E520025080A3A03193A2F2508A4002608A03EBD
:100E620086008701240881000130A4002408A60717
:100E72001C2F2608A03E860087018101A030873101
:100E8200862777082000A301A3077608A201A207FC
:100E920008008631A82687310038031D4A2FA0306A
:100EA2008631E726873187311A27873101302000C2
:100EB20022062304031D682F013020062104031992
:100EC200682F0130A0000030A1000C17842F0230DF
:100ED20022062304031D792F023020062104031960
:100EE200792F0230A0000030A1000C138C174A2F7A
:100EF200033022062304031D4A2F03302006210457
:100F020003194A2F0C138C134A2FFD007D0886000B
:100F120087010108203A031D932F0130F800780859
:100F2200FD07872F7D08860087010108093A03190A
:100F32008E2FFB01FC01FA017D0886008701010862
:100F42002D3A031DA92F0130F8007808FA07B02FB7
:100F52007D088600870101082B3A031DB42F01305A
:100F6200F8007808FD077D088600870101088631B0
:100F7200B6268731031CDB2F7C08F101F1077B08C1
:100F8200F001F0070A30F2000030F3008631FD264E
:100F920087317D088600870101087007F800710813
:100FA2000318710AF9007808D03EFB00FF30793D42
:100FB200FC00B02F7A080319EA2F7B09F8007C099C
:100FC200F900F80A0319F90A7808F6007908F70017
:100FD20008007C08F701F7077B08F601F60708000E
:100FE200A001A101A201A301A0308400003085006C
:0E0FF200503086319B267E1020008631AF2EB7
:020000040001F9
:04000E00A4C9FFDCA6
:00000001FF
