:08000000803102288731F82F3E
:100EBE0087316627873187317827803102282300D2
:100ECE008D0121008D0120008D0123000C108C104E
:100EDE000C11073021008C0020008C01F601F60A5F
:100EEE0008009A2F76088D007635F4007408F60007
:100EFE0076080138F4007408F600A330F50055307A
:100F0E00F400F40B882FF50B882F20000D1F9A2F5D
:100F1E008D01F601F60AA330F5005530F400F40BFE
:100F2E00962FF50B962F20000C080319792F200011
:100F3E000C1C8C18A42F0C1DF52FF101F10AF301D6
:100F4E00F30A0C0871020318BA2F7335F4007408F3
:100F5E00F30073080138F4007408F3000130F40054
:100F6E007408F107A82F7308F4007408F200DE2F3E
:100F7E0073088D007308F4000C0AC62FF435890B24
:100F8E00C52F7408F5007508F30073087204F40099
:100F9E007408F300A330F5005530F400F40BD52F90
:100FAE00F50BD52F700820000C06031D9E2F200078
:100FBE000C08F4007408F00040307302031CBF2FBD
:100FCE008D017208F4007408F300A330F50055305B
:100FDE00F400F40BF02FF50BF02FDE2F20008D0117
:100FEE009E2FF001F101F201F3017E1020008731F6
:020FFE005F2F63
:020000040001F9
:04000E00A4C9FFDCA6
:00000001FF
