:08000000803102288731FA2F3C
:100E980087315327873187316C2780310228230017
:100EA8008D0121008D0120000D100D118D112300E1
:100EB8000C108C100C1121000C148C140C15200033
:100EC8000C108C100C11F401F40AF001F101080067
:100ED80020000C18732F7108013A031D962FF10199
:100EE800F10A74088D007435F2007208F4000930B4
:100EF800F3001C30F200F20B7F2FF30B7F2F000062
:100F0800F408031D892FF401F40A20008C1C902F8B
:100F18000230F2007208F1000C1D962F0330F20027
:100F28007208F1008C189C2F7108023A031DC12F1A
:100F38000230F2007208F10074088D007436F20075
:100F48007208F4000930F3001C30F200F20BAA2FEB
:100F5800F30BAA2F0000F408031DB62F8030F2000F
:100F68007208F40020000C1CBB2FF101F10A0C1DC3
:100F7800C12F0330F2007208F1000C19C72F710855
:100F8800033A031D6C2F0330F2007208F100740855
:100F98008D007408803A031DD42FF001F00AD82F71
:100FA8007408013A0319F001F008031DDD2F7435A8
:100FB800E22F7008013A031DE52F7436F20072081B
:100FC800F4000930F3001C30F200F20BE92FF30BA8
:100FD800E92F000020000C1CF32FF101F10A8C1CF2
:100FE8006C2F0230F2007208F1006C2FF001F10151
:080FF8007E10200087314C2F10
:020000040001F9
:04000E00A4C9FFDCA6
:00000001FF
