:08000000803102288731F12F45
:10091200FE0012001E00FE0B8A2C00348431962445
:1009220084318531CE258031022878302100990426
:1009320023000C1021000C1020000C103F309805F1
:10094200CF3098059917181011100800B9343B34AC
:100952005E343834343435343834323466342F34F7
:10096200BD342C343A342A34DC3427349F342534D1
:100972008234233484342134A3341F340030FB0006
:100982000030FA000030F9000030F800701CD12C61
:100992007408F8077508F93D7608FA3D7708FB3DBB
:1009A2000130F435F50DF60DF70D890BD22C01301F
:1009B200F336F20CF10CF00C890BD92C730872048B
:1009C20071047004031DC72C7B08F3007A08F2003F
:1009D2007908F1007808F000080000302000C30018
:1009E2000030C2000030C1000030C0003B083A04B1
:1009F200390438040319382DC401C40ABB1B0D2D58
:100A02000130B835B90DBA0DBB0D890B022D01307D
:100A1200FC007C08C407FF2C0130C035C10DC20D9B
:100A2200C30D890B0E2D3B083F02031D222D3A08F0
:100A32003E02031D222D39083D02031D222D3808D6
:100A42003C02031C2D2D3808BC023908BD3B3A0874
:100A5200BE3B3B08BF3B40140130BB36BA0CB90C5D
:100A6200B80C890B2E2D0130C402031D0D2D430835
:100A7200BB004208BA004108B9004008B8000800AB
:100A82002000CC00450AC8004C35203E8600870174
:100A9200403FC900413FCA00512D4A0DCA0CC90C42
:100AA200C80B4E2D20004908CD004A08CE004E0842
:100AB200C9004D08C800C835C90DC835C90D480858
:100AC200D83ECA00FF30493DCB00CA09CB09CA0A49
:100AD2000319CB0A4A08F13ED300FF304B3DD40044
:100AE2004D08B8004E08B900BA01BB014608F00033
:100AF2004708F100F201F3010030F7000030F60080
:100B02000330F500E830F4008431BF2485317308E6
:100B12002000BF007208BE007108BD007008BC0052
:100B22008431EE24853120003B08D2003A08D100FE
:100B32003908D0003808CF005308960054089700AF
:100B4200111018145208510450044F040319CB2DEC
:100B5200111CA32D03100C1C0314031CB32D200025
:100B62000C14B52D20000C100130C8000030C90053
:100B72000030CA000030CB004808CF024908D03B01
:100B82004A08D13B4B08D23B5308960054089700C1
:100B92001110A32D18100C1008000430FD007D0860
:100BA2002000C500F430C6000130C7000430853192
:100BB200412585310330FD007D082000C500FA3053
:100BC200C6000030C7000B30853141258531043025
:100BD200FD007D082000C500FA30C6000030C700C5
:100BE20000308531412585310430FD007D0820002B
:100BF200C500FA30C6000030C700023085314125F9
:100C020085310430FD007D082000C5007D30C6001E
:100C12000030C70004308531412585310430FD00A4
:100C22007D082000C5007D30C6000030C7000230BC
:100C32008531412585310430FD007D082000C50045
:100C4200FA30C6000030C7000030853141258531B9
:100C52000330FD007D082000C500FA30C6000030D8
:100C6200C7000B308531412585310330FD007D08F9
:100C72002000C500F430C6000130C70009308531BC
:100C8200412585310330FD007D082000C500FA3082
:100C9200C6000030C7000930853141258531043056
:100CA200FD007D082000C500FA30C6000030C700F4
:100CB20000308531412585310430FD007D0820005A
:100CC200C500F430C6000130C7000430853141252B
:100CD20085310430FD007D082000C500FA30C600D1
:100CE2000030C70002308531412585310430FD00D6
:100CF2007D082000C500FA30C6000030C700003071
:100D02008531412585310330FD007D082000C50075
:100D1200F430C6000130C7000B30853141258531E2
:100D22000330FD007D082000C500FA30C600003007
:100D3200C7000B308531412585310430FD007D0827
:100D42002000C500FA30C6000030C70000308531EF
:100D5200412585310430FD007D082000C500F430B6
:100D6200C6000130C700023085314125853104308B
:100D7200FD007D082000C500F430C6000130C70028
:100D820004308531412585310430FD007D08200085
:100D9200C500F430C6000130C7000030853141255E
:100DA20085310330FD007D082000C500F430C60007
:100DB2000130C70009308531412585310330FD00FE
:100DC2007D082000C500E830C6000330C7000930A6
:100DD2008531412585310430FD007D082000C500A4
:100DE200F430C6000130C70002308531412585311B
:100DF2000430FD007D082000C500FA30C600003036
:100E0200C70002308531412585310430FD007D085F
:100E12002000C500FA30C6000030C7000530853119
:100E2200412585310430FD007D082000C500F430E5
:100E3200C6000130C70009308531412585310430B3
:100E4200FD007D082000C500FA30C6000030C70052
:100E520007308531412585310430FD007D082000B1
:100E6200C500FA30C6000030C70005308531412583
:100E720085310430FD007D082000C500F430C60035
:100E82000130C70004308531412585310430FD0031
:100E92007D082000C500FA30C6000030C7000430CB
:100EA2008531412585310430FD007D082000C500D3
:100EB200FA30C6000030C700003085314125853147
:100EC2000430FD007D082000C500F430C60001306A
:100ED200C70004308531412585310430FD007D088D
:100EE2002000C500FA30C6000030C700023085314C
:100EF200412585310430FD007D082000C500FA300F
:100F0200C6000030C70000308531412585310330ED
:100F1200FD007D082000C500F430C6000130C70086
:100F22000B308531412585310330FD007D082000DD
:100F3200C500FA30C6000030C7000B3085314125AC
:100F420085310430FD007D082000C500FA30C6005E
:100F52000030C70000308531412585310430FD0065
:100F62007D082000C500F430C6000130C700023001
:100F72008531412585310430FD007D082000C50002
:100F8200F430C6000130C700043085314125853177
:100F92000430FD007D082000C500F430C600013099
:100FA200C70000308531412585310330FD007D08C1
:100FB2002000C500F430C6000130C7000930853179
:100FC200412585310330FD007D082000C500E83051
:100FD200C6000330C7000930853141258531CE2D49
:100FE200A7308400843085002030860000308700DE
:0E0FF2001830843189247E10200084318F2C29
:020000040001F9
:04000E00A4C9FFDCA6
:00000001FF
