:0400000080314728DC
:100008007E14803120007F08F5008B130B1D4228D9
:100018000B11083095000D1C2028F301F30A0C1071
:100028000C1103108C1C0314031C1D2820008C14B5
:10003800372820008C1037280D183728F308031D9F
:1000480037287408013A031D332803100C1C0314C5
:10005800031C312820000C14332820000C10013018
:10006800F0070030F13D0D1842287308013A031DCE
:100078004228F301F001F1018C100C148B1775085C
:10008800FF007E10090080314928F001F101F201DA
:10009800F301F4017E1020008031C5281D3071065F
:1000A800031D58284C307006031D6528F208031DEF
:1000B800652820000C10F201F20AF401F40AF0019C
:1000C800F1017208013A031D6C288031B220803199
:1000D80003307106031D7228E8307006031D81285D
:1000E8007208023A031D812820008C100C15033079
:1000F800F7007708F200F001F1010E307106031DD8
:100108008728A6307006031D52287208033A031D7B
:10011800522820000C110C14F201F001F1015228B0
:10012800F30123000C108C100C1121000C108C1002
:100138000C1123000D1021000D1495129511F830A3
:100148009505083020009500F001F101F4010C1428
:100158008C10F2010C118B178B16080004307106F5
:10016800031DB828E2307006031DB228F4010230DE
:10017800F6007608F200F001F10120000C108C1452
:100188000800803194208031803152208031472806
:020000040001F9
:04000E00A4C9FFDCA6
:00000001FF
