:08000000803102288731FB2F3B
:100F84008731C92787318731D1278031022823004F
:100F94008D0121008D01F201F20AF30108007208AB
:100FA400803A0319F62F720820008D007235F00084
:100FB4007008F2000930F1001C30F000F00BE02F53
:100FC400F10BE02F0000D12F720820008D00723643
:100FD400F0007008F2000930F1001C30F000F00B52
:100FE400F12FF10BF12F00007208013A0319D12FF0
:0C0FF400E62FF3017E1020008731C22F91
:020000040001F9
:04000E00A4C9FFDCA6
:00000001FF
