:08000000803102288731F92F3D
:100AF00085319F2585318731432780310228FD01CB
:100B0000F91F892DF809F909F80A0319F90AFD01F5
:100B1000FD0A7808F0007908F100F2018E30FB0040
:100B20007B08F3007D08FC007C08F40086313A263F
:100B30007008F8007108F9007208FA000800210036
:100B4000190887395838990023000C1421000C1417
:100B500023008C1421008C1420008C0123008D01B3
:100B600021008D0120008D0121001D109D109E1778
:100B70001E088F3960389E001E11FC309E059B01B7
:100B80009C010800F21FD82D7009F6007109F700CA
:100B90007209F800F60A0319F70A0319F80A003077
:100BA0007607F0000030773DF1008030783DF200AC
:100BB000F51FEE2D7309F6007409F7007509F800AA
:100BC000F60A0319F70A0319F80A00307607F3004A
:100BD0000030773DF4008030783DF5008030F2063B
:100BE0008030F50675087202031D08007408710252
:100BF000031D0800730870020800F901FA0170086B
:100C0000F200F20DF20D21001D0872068339720602
:100C10009D001D149D140430F3003D30F200F20BD2
:100C20000F2EF30B0F2E003221009D18142E1D10D5
:100C30001C08F200F3017208F9007308FA001B089F
:100C4000F200F3017A08F5007908F4007408F50061
:100C5000F40172087404F70073087504F80077084B
:100C6000F9007808FA007A08F101F1077908F00133
:100C7000F007080073080319422E7208710470040B
:100C8000031D532E0030F0000030F1000030F20060
:100C900008000130F5007508F3070130F236F10C59
:100CA000F00C890B4E2EFE30720503196C2E492E66
:100CB0000130F5007508F3070130F0070030031824
:100CC0000130F107003003180130F2070130F2362D
:100CD000F10CF00C890B672EFF3072050319792E89
:100CE000582E0130F3020130F035F10DF20D890B71
:100CF000742EF11F712E7318832EFF30F0057F3094
:100D0000F105FF30F2050310F30C7308F500F6014E
:100D1000F7011030F535F60DF70D890B8A2E7508A1
:100D2000F0047608F1047708F20474080319080047
:100D3000F217080020002308A6002408A7002508B1
:100D4000A8000310270D280DA9002908AE00AE0841
:100D5000031DB12E0030A0000030A1000030A20021
:100D600008002008A6002108A7002208A8000310F8
:100D7000270D280DA9002908AF00AF08031DC72EB5
:100D80000030A0000030A1000030A20008000030B8
:100D9000AB000030AC000030AD0089302F07A6005A
:100DA0002608AE022308A6002408A7002508A800EC
:100DB0001030A836A70CA60C890BD92E2608A9003E
:100DC0002908AF002008A6002108A7002208A800D3
:100DD0001030A836A70CA60C890BE92E2608A9000E
:100DE0002908AF068030A6002608AF05A417FF30FB
:100DF000A305FF30A4050030A505A117FF30A0050D
:100E0000FF30A1050030A2051830A6002608AA0070
:100E10000130AB35AC0DAD0D890B092F2208250231
:100E2000031D182F21082402031D182F2008230258
:100E3000031C212F2008A3022108A43B2208A53B64
:100E40002B140130A335A40DA50D890B222F0130E1
:100E5000AA02031D082F2B08F0002C08F1002D0812
:100E6000F2002E08A6002608F3002F08A700270886
:100E7000F40086313A2670082000A0007108A10015
:100E80007208A20008000030F0000030F100853147
:100E9000FD25873171082000B501B5077008B40140
:100EA000B4070130F0000030F1008531FD258731B5
:100EB00071082000B301B3077008B201B20733080C
:100EC000803AB0003508803A3002031D692F34089B
:100ED000320203187E2F66302000A0008630A10069
:100EE0004030A2003209B0003309B100B00A031942
:100EF000B10A34083007F80035089D2F2000350866
:100F0000803AB0003308803A3002031D892F32083E
:100F100034020318B32F66302000A0008630A100F1
:100F2000C030A2003409B0003509B100B00A03197D
:100F3000B10A32083007F8003308313DF900853135
:100F40007F25873178082000A3007908A4007A085B
:100F5000A50086319A26873120002008B600210896
:100F6000B7002208B8000030F0000030F100003077
:100F7000F20020003608F3003708F4003808F500C6
:100F80008531C22587310318DC2F0030F000E830AE
:100F9000F1004130F20020003608F3003708F40079
:100FA0003808F5008531C22587310318D92FFF3065
:100FB000DA2F03302000F72F0030F0000030F1006E
:100FC0000030F20020003608F3003708F40038083B
:100FD000F5008531C2258731031C432F20003808D6
:100FE00037043604031DF62F8D01432F80308D000A
:100FF000432FB601B701B8017E1020008531782D4E
:020000040001F9
:04000E00A4C9FFDCA6
:00000001FF
